:0300000002E438DF
:11E437000075812012EA0DE582600302E44502EA4193
:20E44800907050E4F090707004F075F90F75A00075980075A80075C60890E3FEE0A3F8E061
:20E46800F5838882E47581077322AE82AF838F05ED04FF0EE591FD20E1047582FE22ED200C
:20E48800E0047582002212E422DEE9DFE77582FF2212FB60E582700C12E422E58270F21277
:20E4A800F12680ED02F16975D13075C901E5D130E70512E42280F675D107907020E0FEA371
:20E4C800E0C313CE13CEC313CE13CEFF907022E0FCA3E0C313CC13CCC313CC13CCFDEC2EB1
:20E4E800FEED3FFF907024E0FCA3E0C313CC13CCC313CC13CCFDEC2EFEED3FFF907026E020
:20E50800FCA3E0C313CC13CCC313CC13CCFDEC2EFEED3FC403CEC40354076ECE5407CE6EA7
:20E52800CEFF8E04C313CC13CCC313CC13CCFDEC2EFEED3FFFEE2480FEEF34FB8E82F583FC
:20E548002212E4AFAE82AF83C3EE9480EF940250047582FC2275920075912090FFFF12E426
:20E5680072E582FF60038F822212E4AFAD82AE83C3ED9480EE940250047582FC2275920266
:20E588007D388D947595FF75913090008012E472E582FF60038F82227592007594027EE476
:20E5A8008E9575913090008012E472E582FF60038F8222AF937E008E828F83E493FDA3AEDF
:20E5C80082AF83BD020280047582FD228E828F83E493FDA3AE82AF837B387CE48C02EDB546
:20E5E800020280047582FD228E828F83E493FEB5030280047582FD2275820022900004E4F9
:20E60800F012F25775930412E549E582FF7035F59312E549E582FF702BF5927E048E9375E8
:20E62800912090FFFFC00612E472AF82D006EF7013EE2404FE7DE48D04EEB504E012F59CBC
:20E6480075820022C00712F59CD0078F8222900000E493FFBF020280047582FD2290000131
:20E66800E493FF7D387EE48E04EFB5040280047582FD22900002E493FF7A037B00EFB50586
:20E688000280047582FD228A068B078E828F83E493FDA3AE82AF83BDFF0280047582FF22BF
:20E6A8008E038F058D03EBB504E175820022900005E0F50A7003F58222900006E0FE7D008E
:20E6C800900007E07B004205EB420674042405F508E43400F509C006C00512F257D005D087
:20E6E80006C3ED9403EE9400400302E7C88D02EA2401F8E43400F9850882850983E0FFA306
:20E7080085820885830988828983EFF08AF005F07401800225E0D5F0FBFA900004E0FF4AFA
:20E72800F00DBD00010E900004E0F4FF5403600302E8BE900001E0FA74016A540F700F9083
:20E748000002E0F594EAC4035407F595801EEF5407600302E8BE74026A54EF600302E8BE8F
:20E76800900003E0F594900002E0F5957AFE7FE38A927AFE7FE38F93759130900080C0069B
:20E78800C00512E472AF82D005D006EF600AC00712F59CD0078F8222A9957A00A8947C002B
:20E7A800E86201EC620290E3FEE493FB740193FCEB6201EC6202E94A700302E8BE02E8EF0A
:20E7C8008D0474FE5CF5928E048C937BE48B02C3EC9A400302E8EFED30E0437594FF850874
:20E7E80082850983E0F595A3858208858309759130900080C006C00512E472AF82D005D042
:20E8080006EF600302E8F68D828E83E493FCB59502800302E8EF0DBD00010E02E8BEE50A0D
:20E8280054FE7042850882850983E0F594A38582088583097595FF759130900080C006C0AB
:20E848000512E472AF82D005D006EF600302E8F68D828E83E493FCB59402800302E8EF0DEE
:20E86800BD00530E8050850882850983E0F594A3858208858309E0F595A385820885830929
:20E88800759130900080C006C00512E472AF82D005D006EF70588D828E83E493FCB5944781
:20E8A8000DBD00010E8D828E83E493FCB595380DBD00010E150AD50A02800302E6E912F52E
:20E8C8009C7F00C00712E499AE82D007BE090280F2BE0A02800ABE0D028005BE200580E391
:20E8E8008F82227FF980DC12F59C7582FA22C00712F59CD0078F82227F007D007E007C00E9
:20E908007B02C007C006C005C004C00312E499AA82D003D004D005D006D007ECC454F0FCC5
:20E928008A01E924D0FABA0A005005EA420480288A01E924EFFABA06005007740A2A4204F6
:20E9480080168A01E924E0FABA06005007740A2A420480047582FD22EB14FAFB70A48D0271
:20E968008E030DBD00010EEA2405F582EB3400F583ECF0EC2FFF900005E0FC7B0074052C7D
:20E98800FCE43BFBC3ED9CEE9B500302E906EF60047582FC22900008E0FF600CBF01047FB2
:20E9A8000080027FFB8F822202E6B67FE48F0674FCC39EFD7F008E047E007B8074FFC0E01F
:20E9C800C0E0C007C0058E828C838BF012F184AE82AF83E58124FCF58190F5A075F080C0BA
:20E9E80007C00612F4C3D006D0077408C0E003C0E08E828F8312ED1F1581158190F5C375E4
:20EA0800F08002F4C3758600907007743FF07580C07589007588FC758A139070097410F0E5
:19EA28007590F3758B0F758CFF758E159070447447F075B1007582002288
:20EA410012F30275C600E5E830E31590E3FEE493FE740193FFBEFF05BFFF02800312E4484E
:20EA6100907074744BF004A3F090707274F0F0740AA3F09070547490F0907050E0FF740415
:20EA81004FF09070707433F075F90B7F80D2939070537401F0D2AD907053E0FE20E60512CD
:20EAA100F12680F3907077E0EF14FEFF70E9C2AD907053E4F0C29375CAD975CBD975D2D9DF
:20EAC10075D3D9900004E4F0C0E0742DC0E07431C0E07401C0E0E4C0E07496C0E0E4C0E0BF
:20EAE100C0E075820012EE30E58124F8F58175100875110175820012F2C612E9B312E49944
:20EB0100AF82BF0A0280F6BF0D0280F1BF200280ECBF3A0302EC1ABF3F02801ABF4B0280CC
:20EB210020BF520302EBD9BF560302EC9BBF5A0302EBA202ED0775823F12F0AC12E9B38086
:20EB4100BC12E604E582FF700512E656AF8275823F12F0ACBFFC028030BFFD02801FBFFE37
:20EB610002800EBF002F90F62475F08012F4C3808C90F5F075F08012F4C302EAFE90F6031C
:20EB810075F08012F4C302EAFE90F61675F08012F4C302EAFE90F5DC75F08012F4C302EAAD
:20EBA100FE12E656AF8275823F12F0ACBFFD02800FBF001890F63575F08012F4C302EAFE7C
:20EBC10090F60375F08012F4C302EAFE90F64C75F08012F4C302EAFE75823F12F0AC90E352
:20EBE100FEE493FE740193FFBEFF0FBFFF0C90F67C75F08012F4C302EAFE90F66375F0809C
:20EC010012F4C375823F12F0ACE5E5F4FF5444600280F612E44802EAFE12E900E582FF7020
:20EC21000302EAFE75823F12F0ACBFF9028053BFFA028042BFFB028031BFFC028020BFFD72
:20EC410002800FBFFE4890F5F075F08012F4C302EAFE90F69175F08012F4C302EAFE90F6DB
:20EC6100AD75F08012F4C302EAFE90F6C675F08012F4C302EAFE90F6E875F08012F4C3024C
:20EC8100EAFE90F70075F08012F4C302EAFE90F5DC75F08012F4C302EAFE12E4AFAE82AFEF
:20ECA1008375823F12F0AC90F72175F080C007C00612F4C3D006D0078F82758300C007C0CC
:20ECC10006E4C0E004C0E012EFB615811581D006D00775822E12F1097F008E108F119000F7
:20ECE1006412F23AAF838F827583007408C0E07402C0E012EFB61581158190F72675F0808F
:1EED010012F4C302EAFE12FB6012FAA975823F12F0AC90F5C675F08012F4C302EAFE58
:20F5A00041583830353220426F6F746C6F616465722056312E3120436865636B73756D203F
:20F5C0003078000D0A004552522D556E6B6E6F776E20436F6D6D616E640D0A004552522D5A
:20F5E000464C4153482054696D656F75740D0A004552522D464C415348204C6F636B656489
:20F600000D0A004552522D464C41534820566563746F720D0A004552522D564444206C6FB6
:20F62000770D0A004F4B2D464C4153482045726173650D0A004F4B2D464C415348204572D4
:20F6400061736520436865636B0D0A004552522D464C415348206E6F7420457261736564F3
:20F660000D0A004F4B2D52756E6E696E67204170706C69636174696F6E0D0A004552522D0A
:20F680006E6F204170706C69636174696F6E0D0A004552522D496E76616C696420486578C0
:20F6A000204368617261637465720D0A004552522D48657820436865636B73756D20457221
:20F6C000726F720D0A004552522D556E6B6E6F776E205265636F7264205479706520696789
:20F6E0006E6F7265640D0A004552522D464C415348207772697465206572726F720D0A00AB
:20F700004552522D4761726261676520436861726163746572732069676E6F7265640D0AEB
:0AF72000005644442000560D0A0074
:20ED1F00E58124FDF8E608543FF5F0E6FA78007B0530F014E58330E70FC3E49582F582E43C
:20ED3F009583F583782D800E20F20930F108E58345826002782BE86005EA600214FA30F4AE
:20ED5F0006EA24FB50011AC3EB9A5002EAFBEB14C3137004E5828008147004E5838001E40E
:20ED7F005001C4540F24F64004240A8007241130F5022420FC7048EB14604420F741EAC3ED
:20ED9F009B403720F33920F604EBFAD2F6C0F0C082C08375822012F109D083D082D0F03042
:20EDBF00F418EB24FB7013C0F0C082C08375822012F109D083D082D0F00ADB928A82222019
:20EDDF00F71E20F602EBFA74C842F0E86012C0F0C082C083888212F109D083D082D0F00A80
:20EDFF00C0F0C082C083EC2430F58212F109D083D082D0F030F4C3EB24FB70BEC0F0C08286
:11EE1F00C08375822712F109D083D082D0F00A80A9DD
:20EE3000C00F85810FAF827E1AEE700302EF08E50F24FAF8080808E6FD7022BE0800401D01
:20EE5000E50F24FAF80808E608F61818E608F61818E608F6187600EE24F8FE80CCED54F069
:20EE70006002803EBE04004039E50F24FAF8080808E618C454F0C6C4C666C654F0C666080B
:20EE9000F61818E6C4540F0846F618E618C454F0C6C4C666C654F0C66608F61E1E1E1E0269
:20EEB000EE39ED54C060028032BE0200402DE50F24FAF8E625E0F608E633F608E633F608B8
:20EED000E633F6181818E625E0F608E633F608E633F608E633F61E1E02EE39ED20E719E54E
:20EEF0000F24FAF8E625E0F608E633F608E633F608E633F61E02EE398EF005F0E50F24F6EF
:20EF1000F88013C3080808E613F618E613F618E613F618E613F6D5F0EAE50F24F6F886102C
:20EF3000088611088612088613E50F24FAF886820886830886F008E6C00712F45EAB82AC4E
:20EF500083ADF0FED007E50F24FAF8A60308A60408A60508A6067E38E50F24FAF8C308E66F
:20EF7000944008E6940008E694004023EE54F0601EE50F24FAF8080808E6C313F618E613B1
:20EF9000F618E613F618E613F6EE24F8FE80C9530707EF4EF59A759904E50F24FAF8869E9F
:06EFB00008869FD00F222D
:20EFB600E58124FDF8E608543FF5F0E6FA78007B0530F014E58330E70FC3E49582F582E4A3
:20EFD6009583F583782D800E20F20930F108E58345826002782BE86005EA600214FA30F415
:20EFF60006EA24FC50011AC3EB9A5002EAFBEBFC7404C0E012F53A1581EC7048EB146044E4
:20F0160020F741EAC39B403720F33920F604EBFAD2F6C0F0C082C08375822012F109D08305
:20F03600D082D0F030F418EB24FC7013C0F0C082C08375822012F109D083D082D0F00ADB3C
:20F05600AD8A822220F71E20F602EBFA74C842F0E86012C0F0C082C083888212F109D08327
:20F07600D082D0F00AC0F0C082C083EC2430F58212F109D083D082D0F030F4C3EB24FC709F
:16F09600BEC0F0C082C08375822712F109D083D082D0F00A80A9AF
:20F0AC00C007C006C005AF82748055A8FEC2AFC2AF12FB3FAD82C3ED9F500F12E422E58248
:20F0CC00700312FB89EE42A880E5EE42A8D005D006D00722748055A8FFC2AFC2AF12F2ABE1
:20F0EC00E582FEFD601312E422E5827007ED30E10312FB89EF42A880E2EF42A822C007AFF6
:1AF10C008275820112F0ACC00775820012F26F158175820112FAC6D0072237
:0FF12600E587540C4401F587002200000000002B
:20F13500C007C006C005AF82748055A8FEC2AFC2AF12FB60AD82C3ED9F500F12E422E5829D
:20F15500700312FB89EE42A880E5EE42A8D005D006D00722C00775820112F13575820012D8
:0FF17500F268AF8275820112FAA98F82D0072249
:20F18400E58124FBF8E6FC08E6FD08E6FA08E6FB4A604DEA60010B20F77330F648A88220C1
:20F1A400F520E6086C23F58254FE244AC582540134F8F583E4936DFC740193FDDAE4DBE2E2
:20F1C400801EE2086C23F58254FE244AC582540134F8F583E4936DFC740193FDDAE4DBE23D
:20F1E4008C828D8322E0A3A882A9836C23F58254FE244AC582540134F8F583E4936DFC7498
:20F204000193FD89838882DADCDBDA80D3E493A3A882A9836C23F58254FE244AC5825401B3
:16F2240034F8F583E4936DFC740193FD89838882DADBDBD980AAA2
:1DF23A00E5828510F0A4C582C0F08511F0A4D0F025F0C5838510F0A42583F583227E
:11F25700748055A8FFC2AF759641759678EF42A8227B
:20E40000C0E0C0D0C086C082C083C0F075860075D00012FA4AD0F0D083D082D086D0D0D090
:17E42000E032748055A823F5F0C2AF12FA4AE5F0C31392AFF582228E
:20FA4A00E5E530E02A900109E50B2582F582E43583F58374CA83250B4003E50B04B50C05EE
:20FA6A0053E4FB800AF50BE5E6F043E404D2F1E5E530E22AE50EB50D0553E4F780209001F8
:20FA8A00492582F582E43583F583E0F5E6748E83250E4003E50E04F50E43E408D2F22274A8
:20FAAA007D83C5826015250C500425828008C58225824002E582F50C43E40422745E83C5CD
:20FACA00826015250D500425828008C58225824002E582F50D43E40822744383C582250CD4
:20FAEA00500425828008C58225824002E5829001092582F582E43583F58322741F83C58297
:1DFB0A00250D500425828008C58225824002E5829001492582F582E43583F5832264
:20FB2B00E50ED3950D500AE50E24FFB3744583950DF58222E50ED3950DF582500774348357
:20FB4B002582F58222E50BC3950C5006742683C3950CF58222E50BC3950CF58250077414EC
:14FB6B00832582F58222740B8314F5822274058314F582226B
:20F2680012FAE3E0F58222C000E58124FDF812FB05E6F0D00022C000E58124FDF8E6540F7D
:20F2880024F650022407243AF602F276E5E430E10A5408700AE5E554406004758201227506
:1EF2A800820022E5E430E10A5408700EE5E554406004758200227582012275820322D5
:08FB810012F294E582700122EA
:20F2C600C007C006AF82750E00E4F50DF50CF50BEF045403FF7407551025E025E04207C3C1
:1CF2E600E5119402B39200E433C42354E04F4440F5E775E407D29CD006D00722BD
:20F30200907F167404F09070297406F090FC00E06480703FA3E064FE7039A3E06443703371
:20F32200A3E06441702DA3E0644C7027A3E0FA24E65020A37BFFACA8C2AFADD98583D9A854
:20F342008290F72AE2086B93FBDAF98DD98CA864F36056907030745DF0A37438F0A37401D3
:20F36200F0A3743EF0A374DBF0A37440F090703874A7F0A37428F0A37427F0A37416F090E0
:20F3820070767442F0A37408F0907060E090706630E60B742BF0A374CEF09000002274C3BC
:20F3A200F0A374D0F09000002290FC1CE0F8A3E0F9A3E0FA907F10E8F0A3E9F0907F16EAD7
:20F3C200F090FC0CE0F8A3E0F9A3E0FAA3E0FBA3E0FCA3E0FD907030E8F0A3E9F0A3EAF054
:20F3E200A3EBF0A3ECF0A3EDF090FC12E0F8A3E0F9A3E0FAA3E0FBE924EC4024E9232354C1
:20F40200FCF9E82323F8540349F9E854FCF8EB232354FCFBEA2323FA54034BFBEA54FCFA8F
:20F42200907038E8F0A3E9F0A3EAF0A3EBF090FC16E0F8A3E0F9907076E8F0A3E9F0907083
:1CF4420060E090FC1830E60390FC1AE0F8A3E0F9907066E8F0A3E9F0900001224A
:20F72A0000070E091C1B1215383F363124232A2D70777E796C6B6265484F464154535A5DCF
:20F74A00E0E7EEE9FCFBF2F5D8DFD6D1C4C3CACD90979E998C8B8285A8AFA6A1B4B3BABDAF
:20F76A00C7C0C9CEDBDCD5D2FFF8F1F6E3E4EDEAB7B0B9BEABACA5A28F88818693949D9A8F
:20F78A002720292E3B3C35321F18111603040D0A5750595E4B4C45426F68616673747D7A6F
:20F7AA00898E878095929B9CB1B6BFB8ADAAA3A4F9FEF7F0E5E2EBECC1C6CFC8DDDAD3D44F
:20F7CA00696E676075727B7C51565F584D4A4344191E171005020B0C21262F283D3A33342F
:20F7EA004E49404752555C5B7671787F6A6D64633E39303722252C2B0601080F1A1D14130F
:20F80A00AEA9A0A7B2B5BCBB9691989F8A8D8483DED9D0D7C2C5CCCBE6E1E8EFFAFDF4F3EE
:20F45E00FB7A20E4FCFDFEFFE5822582F582E58333F583E5F033F5F0EB33FB4017DAE980E7
:20F47E0042E5822582F582E58333F583E5F033F5F0EB33FBEC33FCED33FDEE33FEEF33FF16
:20F49E00EC9510ED9511EE9512EF95134013EC9510FCED9511FDEE9512FEEF9513FF4382A0
:05F4BE0001DABEEB22A3
:20F4C300A882AF83E4FBFA20F70A30F61420F51DE608801B88828F83E493A3A882AF8380CC
:20F4E3000E88828F83E0A3A882AF838002E208603DF9EB702AEA6005F58212FAC612FB2BA9
:20F50300E582700FACF075820112F0AC8CF012FB2BE582FBE4FAF58212FB05AC82AD838C59
:17F52300828D83E9F0A3AC82AD830A1B8099EA6005F58212FAC6226D
:20F53A00C003C006C007C000C001E58124F9F8E6F8E624FA5004E4F6803D24044008E582C1
:20F55A00F69000008031C403AF82AE8390F82A2582F582E43583F583E4F67408F9E493A3E4
:20F57A002FFBE493A33E5006FEEBFFE649F6E9C31370E98F828E83D001D000D007D006D034
:02F59A0003224A
:20F82A00B0FFD8FFECFFF6FFE0FC70FE38FF9CFFC0E060F030F818FC0000C063E0B1F0D894
:04F59C00759600223E
:20F84A000000C1C081C1400101C3C003800241C201C6C006800741C70005C1C581C440045E
:20F86A0001CCC00C800D41CD000FC1CF81CE400E000AC1CA81CB400B01C9C009800841C8BE
:20F88A0001D8C018801941D9001BC1DB81DA401A001EC1DE81DF401F01DDC01D801C41DC9E
:20F8AA000014C1D481D5401501D7C017801641D601D2C012801341D30011C1D181D04010FE
:20F8CA0001F0C030803141F10033C1F381F240320036C1F681F7403701F5C035803441F4DE
:20F8EA00003CC1FC81FD403D01FFC03F803E41FE01FAC03A803B41FB0039C1F981F840383E
:20F90A000028C1E881E9402901EBC02B802A41EA01EEC02E802F41EF002DC1ED81EC402C1D
:20F92A0001E4C024802541E50027C1E781E640260022C1E281E3402301E1C021802041E07D
:20F94A0001A0C060806141A10063C1A381A240620066C1A681A7406701A5C065806441A45D
:20F96A00006CC1AC81AD406D01AFC06F806E41AE01AAC06A806B41AB0069C1A981A84068BD
:20F98A000078C1B881B9407901BBC07B807A41BA01BEC07E807F41BF007DC1BD81BC407C9D
:20F9AA0001B4C074807541B50077C1B781B640760072C1B281B3407301B1C071807041B0FD
:20F9CA000050C190819140510193C053805241920196C056805741970055C19581944054DD
:20F9EA00019CC05C805D419D005FC19F819E405E005AC19A819B405B0199C059805841983D
:20FA0A000188C04880494189004BC18B818A404A004EC18E818F404F018DC04D804C418C1C
:20FA2A000044C184818540450187C047804641860182C042804341830041C181818040407C
:0AFB8900740C55874401F587222211
:02FB2900C0C159
:01FB80004044
:02FB2700C0C15B
:01FB7F004045
:00000001FF
