:200390009040107408F0904011E4F09040127406F09040217401F0904022F0904023F09055
:2003B00040257482F0904026F090406E7401F0904100F090410174E4F09041027416F090A1
:2003D0004103E4F0904104743DF0904105748DF0904106E4F0904107F0904108F0904109A2
:2003F0007480F090410A7404F090410B7461F090410CE4F090410D74A6F090410E74FFF04A
:2004100090410F745AF0904115E4F090411774F4F090412074C5F09041217484F09041244B
:2004300074F8F090412574F2F090412674C3F0904127740FF0904128741FF0904129740889
:20045000F090412AF090412B7406F090412CE4F090412DF090412FF090413074C5F09041A1
:20047000317484F0904132E4F0904133F090413474F6F090413574F1F090413674C3F09010
:200490004137740FF0904138741FF09041397408F090413AF090413B7406F090413CE4F00D
:2004B00090413D7443F090413E7416F090413FE4F090415014F09041517484F0904152E4D4
:2004D000F0904153F090415474F5F090415574F0F090415674C3F0904157740FF0904158FE
:2004F000741FF0904159740CF090415AF090415B03F090415CE4F090415D7443F090415E90
:200510007416F090415FE4F09041607403F0904161E4F09041627404F090416323F09041FC
:20053000647405F0904165E4F0904166740CF09041677419F090416A740FF090416B74FF1B
:20055000F09041807499F09041837404F0904188740FF09041897477F09042007481F09049
:20057000420114F090420223F090420374C8F0904210747BF0904211748AF090421274D082
:20059000F090421374C9F0904214749FF0904216741FF09042187455F0904219F090421C89
:2005B000748AF090421E740AF0904220743EF09042217431F0904223743EF0904224743191
:2005D000F0904225E4F0904226747FF09042287403F090422A7435F090422D74E0F090426A
:2005F0002FE4F0904230740DF09042337420F0904330E4F0904331F0904332F0904F0D74CC
:2006100003F0904F1004F0904F11E4F0904F1C7407F0904F217468F0904F2274FFF0904FBB
:20063000237484F0904F267498F0904F347408F0904F357411F0904F447425F022904030C8
:200650007407F09040317412F09040327420F0904184E4F0904F00740FF0904F187406F046
:20067000229040307407F090403104F09040327420F0904184E4F0904F00740FF0904F18F0
:200690007406F022904227740AF09042297419F09042317403F022904227E4F0904229F09B
:2006B000904231F02290411774FFF090415CE4F090415DF090415074E7F022907046E4F003
:2006D00022538C3F22A882A983AAF0FBC0E030E70DC3E498F8E499F9E49AFAE49BFBE4FC7A
:2006F000FDFEFF74A588F0A4FFACF0743089F0A42FFFE5F03CFCE43DFD74E88AF0A42FFF5E
:20071000E5F03CFCE43DFDE4FF74A589F0A42CFCE5F03DFDE43EFE74308AF0A42CFCE5F06F
:200730003DFDE43EFE74E88BF0A42CFCE5F03DFDE43EFE74A58AF0A42DFDE5F03EFEE43FE8
:20075000FF74308BF0A42DFDE5F03EFEE43FFF74A58BF0A42EFEE5F03FFFD0E030E711C358
:20077000E49CF582E49DF583E49EF5F0E49F80078C828D838EF0EF22A882A983AAF0FBC0B0
:20079000E030E70DC3E498F8E499F9E49AFAE49BFBE4FCFDFEFF748C88F0A4FFACF074BAE7
:2007B00089F0A42FFFE5F03CFCE43DFD74808AF0A42FFFE5F03CFCE43DFDE4FF740188F078
:2007D000A42CFCE5F03DFDE43EFE748C89F0A42CFCE5F03DFDE43EFE74BA8AF0A42CFCE541
:2007F000F03DFDE43EFE74808BF0A42CFCE5F03DFDE43EFE740189F0A42DFDE5F03EFEE484
:200810003FFF748C8AF0A42DFDE5F03EFEE43FFF74BA8BF0A42DFDE5F03EFEE43FFF7401F0
:200830008AF0A42EFEE5F03FFF748C8BF0A42EFEE5F03FFF74018BF0A42FFFD0E030E71153
:20085000C3E49CF582E49DF583E49EF5F0E49F80078C828D838EF0EF22A882E583F9C0E08C
:2008700030E707C3E498F8E499F9E4FCFDFEFFE4FF740188F0A42CFCE5F03DFDE43EFE7484
:200890000189F0A42DFDE5F03EFEE43FFFD0E030E711C3E49CF582E49DF583E49EF5F0E4F7
:2008B0009F80078C828D838EF0EF22AC82AD83AEF0FFEDA2E7CC33CC33A2E7CC33CC33CC93
:2008D0005403FDEE2E25E04DFDEFA2E7CE33CE33A2E7CE33CE33CE540330E10244FCFF8C41
:2008F000008D018E02EFFBA2E713FFEE13FEED13FDEC13FCEFA2E713FFEE13FEED13FDECDC
:2009100013FC28F8ED39F9EE3AFAEF3BFBEDC423CCC423541F6CCC541FCC6CCCFDEEC423B7
:2009300054E04DFDEFC423CEC423541F6ECE541FCE6ECE30E40244E0FFEC28F8ED39F9EE20
:200950003AFAEF3BFBEFA2E713FFEE13FEED13FDEC13FCEFA2E713FFEE13FEED13FDEC1328
:2009700028F8ED39F9EE3AFAEF3B888289838AF022124A5622C01E85811EAE82AF83E51EEF
:2009900024FCF88604088605EC4D602E8E828F83E0F582C007C006C005C004124A56AB82DD
:2009B000D004D005D006D0078E828F83EBF0A3AE82AF831CBCFF011D80CED01E22C01E8519
:2009D000811EAE82AF837D0074FFC0E0C0E0E51E24FCF8E6C0E008E6C0E08E828F838DF008
:2009F000124CB4AE82AF83E58124FCF581EE4F6005900000800AE51E24FCF8868208868387
:200A1000D01E22C01E85811EAE82AF838E038F047D00C007C00674FFC0E0C0E0E51E24FC4E
:200A3000F8E6C0E008E6C0E08B828C838DF0124CB4AC82AD83E58124FCF581D006D007E503
:200A50001E24FCF8E62EFE08E63FFF8D038E828F83EBF0A3ECF0E51E24FCF88682088683D2
:050A7000A3A3D01E222B
:204F1D00000006576A65215BA965215FE8652163276621676666216BA566210A000A000AB6
:204F3D00000A000A000A0099999999999901220D0000403AE048010003000400A000000026
:204F5D002000AA380000050401FF0001FF0220930B51DE3800350500003901000003FF018B
:204F7D00800000800000310000000080010000005A0000002C01E4070B03AE0200008902A7
:1C4F9D000000D7020000BC020000720200000E030000890400002A1480BA8C014A
:0603840075080075090078
:200A7500748055A8FFC2AFC007124EC4AB82AC83ADF0FED007900025EBF0ECA3F0EDA3F0B8
:200A9500EEA3F09000591245E0AB82AC83ADF0FE900029EBF0ECA3F0EDA3F0EEA3F0EF4264
:200AB500A822AC82AD83AEF0FF900029E0F8A3E0F9A3E0FAA3E0FBECC398FCED99FDEE9A06
:200AD500FEEF9B8C828D838EF0124EBE1208BBAC82AD83AEF0FF900025E0F8A3E0F9A3E063
:200AF500FAA3E0FBE82CFCE93DFDEA3EFEEB3F8C828D838EF022900018E075F002A4240170
:200B1500F582740035F0F583E0FEA3E0FFEE30E505758206802D904030E0FF30E70A740FA3
:200B35005EFF90403BF08008740F5EFF904033F0123446AF828F06EE30E705904180EEF062
:200B55007582002212064D120B0B22120671120B0B2290400FE0FF90401CE0FEEF30E23A22
:200B7500BE0F37120A75904F71E493602D900268124B1D90026DE4F0900029E0FBA3E0FC1D
:200B9500A3E0FDA3E0FE90026EEBF0ECA3F0EDA3F0EEA3F090026812450C90400DE0FE20AC
:200BB500E003020ECC904029E0FE74E05EFDC4035407FFBF0705904029E0FF53061FBE01E0
:200BD500028021BE1003020E1CBE1103020DEFBE1203020D9FBE1303020D58BE1503020EEE
:200BF50045020EBDEF60B3904029E01FC007C00790014075F0001249AC1581D0077421B552
:200C1500080280057423B50821904F30E0900447F0904F31E0900448F0904F32E090044977
:200C3500F0904F33E0FE90044AF07421B5080280057432B50805904002E4F0904007E054FF
:200C5500FEF0900244C007124B1DD007900249E4F09002627440F07401A3F074F85508FE8D
:200C7500BE28028003020D069002647440F07401A3F08F057E00900266EDF0EEA3F0904005
:200C950040E0FE3395E0FD904F4FE493FC3395E0FBEEC39CFEED9BFD90024EEEF0EDA3F02A
:200CB500904F1DE4936023900050124719124EEB120869AB82AC83ADF0FE900250EBF0EC69
:200CD500A3F0EDA3F0EEA3F0801E90004D1245E0124E90AB82AC83ADF0FE900250EBF0EC29
:200CF500A3F0EDA3F0EEA3F090024412450C020BAF904F63E493FE2440FCE43401FD900297
:200D150064ECF0EDA3F0C3EF9E500A900266E4F0A3F0020BAFEFC39EFD7E00900266EDF099
:200D3500EEA3F090024412450C7432B50802800A7433B508028003020BAF90029D124A00C5
:200D5500020BAF904F1DE4936003020EBDBF03028003020EBD904029E0FE53060F74085EF2
:200D7500F4FD0DED42068E05ED3395E0FD900253F0900252EEF0904029E0900251F09040F3
:200D950029E0FE900250F0020BAF904F1DE4937003020EBDBF02028003020EBD904029E00A
:200DB500900251F0904029E0900250F0900250E0FBA3E0FCA3E0A3E08B828C83124EEB12E5
:200DD5000869AB82AC83ADF0FE900250EBF0ECA3F0EDA3F0EEA3F0020BAFBF010280030256
:200DF5000EBD904029E0FE3395E0FD904F4FE493FC3395E0FBEEC39CFEED9BFD90024EEEB5
:200E1500F0EDA3F0020BAFBF03028003020EBD90024DE4F0904029E090024CF0904029E04A
:200E350090024BF0904029E0FE90024AF0020BAFEF7003020BAFC007120A75900272124B9A
:200E55001D900277E4F0904029E0FEFC3395E0FD904F4FE493FB3395E0FAECC39BFCED9AFC
:200E7500FD90027CECF0EDA3F0904F51E493FDC3EE64808DF063F08095F0B39208E43390F4
:200E9500027EF0900029E0FBA3E0FCA3E0FDA3E0FE900278EBF0ECA3F0EDA3F0EEA3F090C4
:200EB500027212450CD0071FEF7003020BAF904029E0DFFA020BAF2290402DE0FF90402CCA
:200ED500E060027FFFAE09BE0A02800FBE0B03020F85BE0C0302115B021208900016E0FDF1
:200EF500A3E0FE4D703775090B7411B5080280057413B50814904F59E493FB740193FC9080
:200F15000016EBF0ECA3F08067904F5DE493FB740193FC900016EBF0ECA3F08053BF04001D
:200F350050030212027F07C3ED9407EE940050028D078F057E00900016E0FBA3E0FC900058
:200F550016EBC39DF0EC9EA3F0EFC42354E0FF9040297462F0904F60E493904029F09040D7
:200F750029EFF0904F5FE493FE904029F0020ECD900016E0FDA3E0FE4D600302106CBF0FDB
:200F9500005003021202904F61E493FC606F9040297441F0741CF0904F62E493FBFF9042AF
:200FB50000E0FA30E7267408C39CF5F005F074FF800225E0D5F0FBFA52078CF005F07480DE
:200FD5008002C313D5F0FBFA4207802C8C027B007408C39AFAE49BFB8AF005F074FF80023B
:200FF500C313D5F0FBFA52078CF005F07401800225E0D5F0FBFC4207904029EFF0904012C7
:20101500E0FC53040EBC0649904F6BE493FCE493603FEC540760027404FB74072CC423549E
:201035001FFC04C42354E0FA430201904029EAF0904F70E493FA4203904029EBF07B00C337
:20105500EB9C500DEB904F6C93FA904029F00B80EE75090C020ECDBF040050030212027F60
:20107500FFC3ED94F8EE94075012EEC423CDC423541F6DCD541FCD6DCDFE8D07EF60458FD0
:2010950005E40354F8CDC403CD6DCD54F8CD6DFE900016E0FBA3E0FC900016EBC39DF0EC17
:2010B5009EA3F09040297462F0904F60E493904029F0904029EFF0904F5FE493FE90402908
:2010D500F0020ECD904F5FE493FE900016E0FCA3E08C07900016E4F0A3F09040297441F038
:2010F500741CF0904200E0FD30E7277408C39FFD8DF005F074FF800225E0D5F0FBFD520612
:201115008FF005F074808002C313D5F0FBFD4206802C8F047D007408C39CFCE49DFD8CF068
:2011350005F074FF8002C313D5F0FBFC52068FF005F07401800225E0D5F0FBFD4206904081
:2011550029EEF0020ECDBF0B0050030212027E00900016E0F5F0A3E045F070027E01900041
:2011750016E0FCA3E0FD900014E0FAA3E0FBEAC39CFCEB9DFD1F1F1F8F027B00C3EA9CEB85
:201195009D40058C07430602EF605390402974E1F0EF04904029F0904029EEF0900016E061
:2011B500FCA3E0FDEC243CFCED3400FD7B00C007C006C0078C828D838BF0124B8C1581D081
:2011D50006D0077D00900016E0FBA3E0FC900016EF2BF0ED3CA3F0EE20E103020ECD7509E7
:2011F5000D9040097401F09040077440F09040287404F022C021C0E0C0F0C082C083C00715
:20121500C006C005C004C003C002C001C000C0D075D000E509FF24EF5003021265EFF5F0EF
:20123500240B83F582E5F0241583F583E473651CC871657C658765922525252B5FA4CC1217
:2012550016151212121212121213131313141414904006E4F0904007F002161F904006E4E6
:20127500F075090402161F904006E4F075090602161F904009E4F075090802161F90400F02
:20129500E09040287403F0904006E4F09040077408F075090A904010E0FF53070FBF091184
:2012B50090402974E1F07402F014F09040297411F0120ECD904002740DF0120A7590027F31
:2012D500124B1DAF08BF12028003BF131990001DE0FF904F7AE493FEEFB506028008900267
:2012F500847408F08005900284E4F0900029E0FCA3E0FDA3E0FEA3E0FF900285ECF0EDA3DF
:20131500F0EEA3F0EFA3F090027F12450C02161F120ECD02161F90400FE090401CE0600308
:2013350002161F904009E4F0AF08BF1202806ABF13028065BF2002801DBF21028036BF2290
:2013550002801CBF2302803CBF30030213E2BF310280390213EF120B6012163C0213F2902A
:201375000249E0FFBFF008120B6012163C806E1217948069900249E0FFBFF0F3120B601217
:2013950016A38059120B601216A38051904F7CE493FF900014F0E4A3F0120B6012163C9040
:2013B500029D124A00904F72E493FC740193FD740293FE740393FF9002A1ECF0EDA3F0EEC7
:2013D500A3F0EFA3F090029D1245268010904F7CE493FF900014F0E4A3F012178B7430B5BE
:2013F5000802801A7431B5080280137432B50802800C7433B508028005900013E4F0120ACE
:2014150075900289124B1D90028EE4F07412B50802800C7413B5080280057431B508069025
:20143500028E7402F0900029E0FCA3E0FDA3E0FEA3E0FF90028FECF0EDA3F0EEA3F0EFA3F9
:20145500F090028912450C02161F904006E4F0904007F0904002740DF0750900120A75907F
:20147500027F124B1D900284E4F0900029E0FCA3E0FDA3E0FEA3E0FF900285ECF0EDA3F0E7
:20149500EEA3F0EFA3F090027F12450C02161F90400CE0FF20E00302157E9040097403F0F6
:2014B500904006E4F09040077440F0904002740DF075091002157E90400FE0FF904009E411
:2014D500F0EF54036007C007120A75D007EF30E034C007120A75900289124B1D90028EE407
:2014F500F0900029E0FBA3E0FCA3E0FDA3E0FE90028FEBF0ECA3F0EDA3F0EEA3F09002893C
:2015150012450CD007EF30E160120A7590027F124B1D900284E4F0900029E0FCA3E0FDA35E
:20153500E0FEA3E0FF900285ECF0EDA3F0EEA3F0EFA3F090027F12450C120A759002931284
:201555004B1D900298E4F0900029E0FCA3E0FDA3E0FEA3E0FF900299ECF0EDA3F0EEA3F0F0
:20157500EFA3F090029312450C90400DE0FF904007E0FE5F20E30302161F904007E054F73D
:20159500F0120A75900293124B1D900298E4F0900029E0FCA3E0FDA3E0FEA3E0FF900299D5
:2015B500ECF0EDA3F0EEA3F0EFA3F090029312450C805790400DE0FF30E70A90400BE0447C
:2015D50080FFF0800890400BE0547FFFF090400CE0FF30E00A90400AE04401FFF080289087
:2015F500400AE054FEF0900447E0904F30F0900448E0904F31F0900449E0904F32F09004A2
:201615004AE0FF904F33F0120B67D0D0D000D001D002D003D004D005D006D007D083D08225
:20163500D0F0D0E0D021327433B5080474018001E4FF904F71E493FE42077432B5080474D8
:20165500018001E44207EFFE60069040097404F0904F50E49390422CF0C0061206A7D00643
:20167500904232E054BFFFF09040287403F09040027409F0750901EE60089040077441F080
:2016950080069040077401F0904006E4F02290422E7402F0904F71E49360069040097404C3
:2016B500F09040287403F09043107401F0904F50E49390422CF0120694904232E054BFFF48
:2016D500F0904002740BF0750902904F71E49360089040077441F080069040077401F09047
:2016F5007046E0FF30E60D904026E0FF53070FBF07028013907046E0FF30E719904025E05A
:20171500FF530707BF040E904007E04480FFF09040057490F09040067401F0904F7DE49342
:20173500FE740193FFFD90406CEDF08E0590406DEDF0900068124719AC82AD83EC2EFEEDFF
:201755003FFD90406AEDF090406BEEF0229040027405F07407F0120B5990402EE4F0904028
:201775002F7480F0750909904007E4F090400604F0904004E022121794904002E4F022905A
:201795004007E4F0904006F09040027405F0904310E4F0F50922748055A8FFC2AF7509035F
:2017B500904006E04401FEF0C2AF7404B509028016758202C007124393D007EF42A8C007CD
:2017D500124417D00780E1EF42A82290002DE0904207F090002EE0904206F090002FE09059
:2017F5004205F0900030E0904204F0900032E090420BF0900033E090420AF0900034E09025
:201815004209F0900035E0FF904208F0904F1EE4937003021917904F64E493700302191792
:201835007EFF7F01904011E0FD530501C3E49DFD904F65E493FCBCFF028026E4C40354F82D
:20185500CCC403CC6CCC54F8CC6CFBC005C004C0039001FF124E36AE82AF8315811581D08D
:2018750005904207E0FC7B00ED6EF9EB6FFA8C007C00E86201EC6202904207E9F08E828F82
:2018950083C005C003124E5CAE82AF83D003D005904206E0FCED6EF9EB6FFA8C007C00E816
:2018B5006201EC6202904206E9F08E828F83C005C003124E5CAE82AF83D003D00590420568
:2018D500E0FCED6EF9EB6FFA8C007C00E86201EC6202904205E9F08E828F83C005C0031260
:2018F5004E5CAE82AF83D003D005904204E0FCED6206EB62077D00EC6206ED6207904204C7
:20191500EEF022120390904202E0FF904F6AE493FE2F904202F09040247403F0904F1DE46E
:2019350093FF60047F1380027F15904232EFF01217E022AC82AD83AEF0FF90001FE0F8A3C1
:20195500E0F9A3E0FAA3E0FB90001FEC28F0ED39A3F0EE3AA3F0EF3BA3F022AC82AD83AE8C
:20197500F0FF90001FE0F8A3E0F9A3E0FAA3E0FB90001FE8C39CF0E99DA3F0EA9EA3F0EB60
:201995009FA3F022AC82AD83AEF0FF90001FE0F8A3E0F9A3E0FAA3E0FB9002A1E8F0E9A34E
:2019B500F0EAA3F0EBA3F0E8C39CFCE99DFDEA9EFEEB9FFF9002A1ECF0EDA3F0EEA3F0EF53
:2019D500A3F02290024AE0FCA3E0FDA3E0FEA3E08C828D838EF0120AB7AC82AD83AEF0FF97
:2019F50090001FE0F8A3E0F9A3E0FAA3E0FBECC398FCED99FDEE9AFEEF9BFF8C028D039051
:201A15000254EAF0EBA3F0900023E0FAA3E0FB904F93E493C0E0740193C0E08A828B83129B
:201A35004926AB8215811581EB704B8C828D838EF0EFC007C006C005C004121948D004D06B
:201A550005D006D007EFC42354E0CEC423CE6ECE54E0CE6EFFEDC423541F4EFEEDC42354CC
:201A7500E0CCC423CC6CCC54E0CC6CFD900023ECF0EDA3F08048900023E0FAA3E0FB8A00E5
:201A9500EBF93395E0FAFBEC28F8ED39F9EE3AEF3B900023E8F0E9A3F0EFA2E713FFEE13A1
:201AB500FEED13FDEC13FCEFA2E713FFEE13FEED13FDEC13F5828D838EF0EF12194890009F
:201AD50023E0FEA3E0FF904F93E493C0E0740193C0E08E828F8312494DAE82AF8315811566
:201AF50081900023EEF0EFA3F022904F7FE493FC740193FD740293FE7403938C828D838E88
:201B1500F0121948900023E0FEA3E0FF904F93E493C0E0740193C0E08E828F83124926AFB7
:201B35008215811581EF70028029900023E0FEA3E0FFC403CEC40354076ECE5407CE6ECE6D
:201B550030E20244F8FF3395E0FD8E828F838DF012194822AF08BF100050030223C4EF2473
:201B7500CC50030223C4EF24F0FF240A83F582EF242883F583E47377771010C4C4C4C4C4AF
:201B9500C4C4C4C4C4C4C4D4D47878C4C4C4C4D4D4D4D4D4C4C4C41313BBBB1C1C1D1D238B
:201BB50023232323232323232323231B1B1D1D232323231B1B1B1B1B2323231E1E1F1F9099
:201BD5000013E0FFBF0203021C7790029D124A00904F52E493FE740193FF7D007C009002E2
:201BF500A1EEF0EFA3F0EDA3F0ECA3F090029D124526120A75900272124B1D900277E4F038
:201C1500904040E0FFFD3395E0FE904F4FE493FC3395E0FBEDC39CFDEE9BFE90027CEDF01E
:201C3500EEA3F0904F51E493FEC3EF64808EF063F08095F0B39200E43390027EF0900029E8
:201C5500E0FCA3E0FDA3E0FEA3E0FF900278ECF0EDA3F0EEA3F0EFA3F090027212450C023E
:201C750023C490001DE0FFE06006EF1490001DF090029D124A00904040E0FF904F51E493D5
:201C9500FEC3EF64808EF063F08095F0400F90001DE0FFE07023904F56E493601C900013AC
:201CB500E4F0904F5B93FD740193FE900016EDF0EEA3F0121762021C07EF6003021BE51251
:201CD5000A75900013E4F012178B90027F124B1D9002847403F0900029E0FCA3E0FDA3E0A5
:201CF500FEA3E0FF900285ECF0EDA3F0EEA3F0EFA3F090027F12450C0223C4900013E0FFFA
:201D1500BF0103021C7712178B90001DE0FFE07034120A75900289124B1D90028E7403F0E5
:201D3500900029E0FBA3E0FCA3E0FDA3E0FE90028FEBF0ECA3F0EDA3F0EEA3F090028912D1
:201D5500450C0223C4EF1490001DF0904F5BE493FE740193FF900016EEF0EFA3F01217624D
:201D75000223C4900013E0FFBF0103021C779040287403F0904002740DF0904003E0FF3007
:201D9500E3F8120B5990400FE090402EE4F090402F7480F075090A904F5BE493FE7401932A
:201DB500FF900016EEF0EFA3F0904010E0FF53070FBF091190402974E1F07402F014F090D0
:201DD50040297411F09040077408F0120A7590027F124B1D900284E4F0900029E0FCA3E0AF
:201DF500FDA3E0FEA3E0FF900285ECF0EDA3F0EEA3F0EFA3F090027F12450C0223C490006B
:201E150013E0FFBF0402805BBF0503021F589040027405F0120B599000137404F0900293FA
:201E3500124B1D900298E4F0900299F0A3F0A3F0A3F090029312450C90029D124A0090009E
:201E55001FE0FCA3E0FDA3E0FEA3E0FF9002A1ECF0EDA3F0EEA3F0EFA3F090029D1245B423
:201E75000223C49040287403F0904002740DF0904003E0FF30E3F890400FE090402EE4F074
:201E950090402F7480F075090A904F5BE493FE740193FF900016EEF0EFA3F0904010E0FF47
:201EB50053070FBF091190402974E1F07402F014F09040297411F090029D124A00120A7599
:201ED5009040077408F0904F7FE493FC740193FD740293FE7403938C828D838EF0121948B4
:201EF5009000137405F07431B5080280269000137403F0904F83E493FC740193FD740293CA
:201F1500FE7403938C828D838EF012199990029D1245B490027F124B1D900284E4F0900005
:201F350029E0FCA3E0FDA3E0FEA3E0FF900285ECF0EDA3F0EEA3F0EFA3F090027F12450C1A
:201F55000223C412178B9000137403F090029D124A00904F83E493FC740193FD740293FE59
:201F75007403938C828D838EF012199990029D1245B4120A75900289124B1D90028E7403EB
:201F9500F0900029E0FCA3E0FDA3E0FEA3E0FF90028FECF0EDA3F0EEA3F0EFA3F090028989
:201FB50012450C0223C4900013E0FF24F35003021FF2EFF5F0240B83F582E5F0241183F542
:201FD50083E473F2F2F2F2F2F2F28011661A7D951F1F1F1F1F1F1F20212122222312178BFB
:201FF5009000137407F0904F8FE493FC740193FD740293FE7403938C828D838EF0121948B8
:2020150090029D124A0090001FE0FCA3E0FDA3E0FEA3E0FF9002A1ECF0EDA3F0EEA3F0EF13
:20203500A3F090029D1245B4900244124B1D75410075422075430090024875F000124498FC
:20205500900029E0FCA3E0FDA3E0FEA3E0FF90024AECF0EDA3F0EEA3F0EFA3F090024974C9
:202075000AF090024412450C0223C412163C9000137406F0904F87E493FC740193FD74026A
:2020950093FE7403938C828D838EF012194890029D124A0090001FE0FCA3E0FDA3E0FEA3C7
:2020B500E0FF9002A1ECF0EDA3F0EEA3F0EFA3F090029D1245B4120A75900244124B1D750A
:2020D500410075422075430090024875F000124498900029E0FCA3E0FDA3E0FEA3E0FF9046
:2020F500024AECF0EDA3F0EEA3F0EFA3F09002497409F090024412450C0223C49040027470
:2021150005F09000137409F090029D124A009002A1E0FCA3E0FDA3E0FEA3E0FF904F83E442
:2021350093F8740193F9740293FA740393FBE82CFCE93DFDEA3EFEEB3FFF9002A1ECF0ED78
:20215500A3F0EEA3F0EFA3F090029D1245B40223C412163C900013740AF0120A75900244D5
:20217500124B1D75410075422075430090024875F000124498900029E0FCA3E0FDA3E0FEC8
:20219500A3E0FF90024AECF0EDA3F0EEA3F0EFA3F0900249740BF090024412450C90029DBB
:2021B500124A0090001EE0FF904F96E493FEC3EF9E4003EE14FF9002A1E0FBA3E0FCA3E093
:2021D500FDA3E0FEEF75F004A424A3F582744F35F0F583E493F8A3E493F9A3E493FAA3E4B5
:2021F50093FFE82BFBE93CFCEA3DFDEF3EFE9002A1EBF0ECA3F0EDA3F0EEA3F090029D12EB
:2022150045B40223C490401CE0FFFE70030223C4EEF4FE540F6002804F900013740BF0908C
:20223500029D124A009002A1E0FCA3E0FDA3E0FEA3E0FF904FAFE493F8740193F9740293F5
:20225500FA740393FBE82CFCE93DFDEA3EFEEB3FFF9002A1ECF0EDA3F0EEA3F0EFA3F090C6
:20227500029D1245B40223C412178B90001EE0700690001E7401F090001EE02401F0120A2C
:2022950075900244124B1D75410075422075430090024875F000124498900029E0FCA3E0DA
:2022B500FDA3E0FEA3E0FF90024AECF0EDA3F0EEA3F0EFA3F09002497403F090001EE0FFFF
:2022D500904F95E493FEC39F405790024412450C121AFF9000137408F090029D124A009079
:2022F500001EE0FF904F96E493FEC3EF9E4003EE14FFEF75F004A42497F582744F35F0F543
:2023150083E493FCA3E493FDA3E493FEA3E4938C828D838EF012199990029D1245B40223AA
:20233500C49002497409F090024412450C12163C9000137406F090029D124A00904F87E4FD
:2023550093FC740193FD740293FE740393FF9002A1ECF0EDA3F0EEA3F0EFA3F090029D12F1
:2023750045269002A1E0FCA3E0FDA3E0FEA3E0FF90001FECF0EDA3F0EEA3F0EFA3F0802F8E
:202395009000137408F090029D124A00904F9BE493FCA3E493FDA3E493FEA3E4938C828DBD
:2023B500838EF012199990029D1245B4021D8322AE82AF8374042EFEE43FFF8E828F8312E9
:2023D5003DF522900249E06009900248123DF50228C3904F1EE493605174F85508FFBF2891
:2023F500028047900266E0FEA3E0FF904F63E4937C002EFEEC3FFF904011E0FD530501C342
:20241500E49DFD900262E0FBA3E0FC7A00C00574FFC0E07401C0E0C006C0078B828C838A41
:20243500F0124607E58124FBF581904F6AE493606674F85508FFBF2802805C900266E0FE54
:20245500A3E0FF904F63E4937C002EFEEC3FFF900262E0FCA3E0FDC006C0078C828D83124D
:2024750009CDAE82AF8315811581EE4F7003022877904F63E493FD7C00EEC39DFEEF9CFF8A
:20249500904F6AE493FD7C00EEC39DFEEF9CFF900266EEF0EFA3F0900254E4F0A3F09002E1
:2024B50056F0A3F07412B50802800C7413B5080280057431B5086012178B90029D124A0091
:2024D5007431B508269000137403F0904F83E493FC740193FD740293FE7403938C828D834C
:2024F5008EF012199990029D1245B4900289124B1D90028EE4F09000591245E0AC82AD8344
:20251500AEF0FF90028FECF0EDA3F0EEA3F0EFA3F090028912450C904F65E493FFBFFF0291
:202535008029900262E0FDA3E0FEEF2DFFE43EFC8F418C42754300904F64E493FF8F4475FB
:20255500450090025D75F0001244B7904F66E493FFBFFF028029900262E0FDA3E0FEEF2D2E
:20257500FFE43EFC8F418C42754300904F64E493FF8F4475450090025875F0001244B774BD
:2025950022B5080280117423B50802800A7433B50802800302278D90001DE4F0904F6393DF
:2025B500FFFD7E00904F7CE493FC7B00900014EC2DF0EB3EA3F08F428E438E4190003C7528
:2025D500F000124498904F7BE493FFBFFF028035900262E0FDA3E0FEEF2DF582E43EF58344
:2025F500E0FEEF243CF582E43400F583EEF090001EE0FFB50602800790001EEEF080069041
:2026150002497408F0904F65E493FFBFFF028057904F66E493FEBEFF028027EF243CFDE44D
:202635003400FE7C007541587542028C43904F64E493FB8B448C458D828E838CF01244B743
:202655008025EF243CFFE43400FE7D007541377542008D43904F64E493FC8C448D458F8202
:202675008E838DF01244B7904F66E493FFBFFF028025EF243CFFE43400FE7D0075412D7551
:2026950042008D43904F64E493FC8C448D458F828E838DF01244B7904F69E493FF60309031
:2026B5000014E0FDA3E0904F68E493FEEDC39E5FFE904F67E493243CFDE43400FC8D828C61
:2026D50083E0FBEFF4FF5B42068D828C83EEF0904F6AE4936020900014E0C0E0A3E0C0E07F
:2026F50090003C120A13AE82AF8315811581900014EEF0EFA3F0904F1EE493602F90401154
:20271500E0FF530701C3E49FFFC00774FFC0E07401C0E0900014E0C0E0A3E0C0E090003C23
:2027350075F000124607E58124FBF581904006E4F0904007F09040027405F09040287403AA
:20275500F075090A904003E0FF20E3F890029D124A00904F76E493FC740193FD740293FEE0
:20277500740393FF9002A1ECF0EDA3F0EEA3F0EFA3F090029D12456D7432B50802800A7453
:2027950033B5080280030228717433B50802800312178B900013E0FFBF08028045BF0A029C
:2027B5008040BF0B02803B90024AE0FCA3E0FDA3E0FEA3E08C828D838EF0120AB7AC82AD37
:2027D50083AEF0FF90001FECF0EDA3F0EEA3F0EFA3F0900023E4F07480A3F090001EE4F026
:2027F500802D1219D8900023E0FEA3E0FFC403CEC40354076ECE5407CE6ECE30E20244F859
:20281500FF900256EEF0EFA3F090001E7401F0121AFF7433B50802803D9000137408F0905C
:20283500029D124A0090001EE075F004A42497F582744F35F0F583E493FCA3E493FDA3E44A
:2028550093FEA3E4938C828D838EF012199990029D1245B48006900013740CF09002481299
:202875003DF57421B508051216A380427422B5080280057423B50824748055A8FFC2AFAECC
:202895000990024974F0F0EF42A8EE70217423B508051216A3801712163C8012AF09BF016A
:2028B500028003BF0208904007E04401FFF022900244124B1D900268124B1D900272124B83
:2028D5001D90027F124B1D900289124B1D900293124B1D90029D124A00227E007F007D40A0
:2028F5009043007484F0904300E0FC20E7F8DDF07D209043007484F0904300E0FC20E7F887
:20291500904308E0FC5304038C037C00904309E0F97A00E94204EA4203EC2EFEEB3FFFDDDB
:20293500D18E828F8322C01E85811E05810581AF827DFF7EFF53077F8F047B00EB2F54C020
:2029550060028042C004EB2F4480904180F0C007C006C005C0031228EFAA82AC83D003D01F
:2029750005D006D007A81E08A60208A604A81E08C3E69D08E69ED004500CA81E0886050837
:202995008606EB2FFAFCEB604DEFC39B54C060028044C004EFC39B4480904180F0C007C0CA
:2029B50006C005C0031228EFAA82AC83D003D005D006D007A81E08A60208A604A81E08C3E2
:2029D500E69D08E69ED004500DA81E088605088606EFC39BFAFC0BBB10028003022951C3D8
:2029F50074109DE49E400774804FF582800574804CF582851E81D01E22C01E85811E058126
:202A150005817F007DFF7EFF7B007C007A40C0071A74804AFF904180F0904033E0C007C029
:202A350006C005C004C003C0021228EFA81E08A68208A683D002D003D004D005D006D00722
:202A5500A81E08904033E0EA75F002A42440F582740135F0F583A81E08E6F008E6A3F0A801
:202A75001E08C3EB96EC0896D0075008A81E088603088604A81E08C3E69D08E69E501EC067
:202A950007A81E088605088606904033E0F4FF54C06004D0078006D00774804AFFEA600321
:202AB500022A23EF30E71674012C401174FF2E500CEBC39DFDEC9EFEC394405005758200F4
:202AD50080028F82851E81D01E227508001228C490024674D8F07423A3F0900248E4F0F5BE
:202AF50041754205F54390025875F00012449875410075420575430090025D75F00012447B
:202B15009890026A74C5F07423A3F090026C7401F090027474C5F07423A3F090027674027F
:202B3500F090028174C5F07423A3F09002837403F090028B74C5F07423A3F090028D7404A7
:202B5500F090029574C5F07423A3F09002977405F090029F7469F0741BA3F0900018E4F0C8
:202B7500900019F0A3F0A3F0A3F0123F0F750900124028E5826006758205022ED01219188A
:202B950012064D9040307409F090403114F0123F0C9040027405F09040107408F090416133
:202BB500E4F0904162F0904163F01217AB7F00904F1FE493FEC3EF9E4003022CCCEF75F03E
:202BD50004A42420F582744F35F0F583E493FBA3E493FCA3E493FDA3E493FE8B02904037D2
:202BF500EAF08C02904036EAF08D02904035EAF08E03904034EBF0748055A8FEC2AF7509BC
:202C1500059040067410F0904F38E493FCA3E493FDEC54F0701BEF75F002A42438F58274B3
:202C35004F35F0F583E493FCA3E493FD43041080327C18EF602D8F037D001BBBFF011DED01
:202C5500CB25E0CB33FDEB2401F582ED3400F583E0FBA3E0FD8B04EC30E5027C0853040F9D
:202C7500430410904033ECF0C2AF7406B50902801A758202C007C006124393D006EE42A8A8
:202C9500C006124417D006D00780DD750900904006E4F0EF75F002A42401FC740035F0FD09
:202CB500904033E0FB7A008C828D83EBF0EAA3F0EE42A80F022BC4904F4AE4937003022E16
:202CD5005512064D9040107408F0904161E4F0904162F0904163F0904030E04404F0904F95
:202CF50035E04480FFF4FE30E1010F904F35EFF0904002740CF0904180E0F50D750E027572
:202D15000C00904F1FE493FCC3E50C9C4003022E4FE50C240DF582E43400F583E4F0E50C21
:202D350075F002A4FBACF02401F9EC3400FA89828A83E0F513A3E0F514E51330E503022ED8
:202D55004A740F5513F8904033F0E50C75F004A42420F582744F35F0F583E493F50FA3E423
:202D750093F510A3E493F511A3E493F512AF0F904037EFF0AF10904036EFF0AF1190403558
:202D9500EFF0AF12904034EFF0904F44E493606BE50C904F4493FF904F38E493FDA3E493EB
:202DB500FEED54F0702589828A83E0FDA3E053050FEB2438F582EC344FF583E493F8A3E4C0
:202DD5009353000F7E00EDC3982FFFE50C240DFDE43400FE8F82C006C005C004C003C002DB
:202DF500C00112293BAF82D001D002D003D004D005D0068D828E83EFF0802CE50C240DFE96
:202E1500E43400FFC007C006C004C003C002C001122A0EAD82D001D002D003D004D006D086
:202E3500078E828F83EDF0E50E14FF8F0E6003022D9E750E01050C022D17904180E50DF096
:202E5500904002E4F0121918120671900001E0FEA3E053060F904033EEF0904F20E493FC3E
:202E7500A3E493FDA3E493FEA3E493FF8C03904037EBF08D03904036EBF08E03904035EB92
:202E9500F08F04904034ECF07508017F00904F1FE493FEC3EF9E5020EF75F002A42401F576
:202EB50082740035F0F583E0FDA3E0FEED30E50575820680060F80D575820022E5096005B2
:0E2ED5007402B5090575820180037582002222
:08588700122ED1E5827001220E
:202EE300E582FFB5080675820002334DAE08BE0002804DBE0202805DBE0303022F8CBE18F4
:202F030003022F8CBE1903022F8CBE1A02807ABE1B028075BE1C028070BE2803022FE5BE2A
:202F23002903022FE5BE2A03022FE5BE2B03022FE5BE2C03022FE5BE2D03022FE5022FF21F
:202F4300C007122ADFAE82D007EEFD7003022FFC8D8202334DC007123FE5AE82D007EE6017
:202F63000675820502334DC007121918900018E0F582123352AE82D007EE60058E8202338B
:202F83004D7509007508018070748055A8FEC2AFE5097038C007C006120A75900289124B69
:202FA3001D90028EE4F0900029E0FAA3E0FBA3E0FCA3E0FD90028FEAF0EBA3F0ECA3F0ED08
:202FC300A3F090028912450CD006D007C007C00612178BD006EE42A8121918D007750801A9
:202FE3008017C00712178B121918D007750801C00712178BD007750801C0071228C4D007B8
:20300300EF700675820102334D900013E4F0EF24CC500302334AEF240A83F582EF243883C1
:20302300F583E4734A8F950D4A4A4A4A4A4A4A4A4A4A4A4AA1B2A1B24A4A4A4A1A1A1A1A95
:203043001A4A4A4AC306C3064A4A4A4AA9A9A9A9A9A94A4A5252AFAF33303032333333339E
:2030630033333333333333333030303033333333313131313133333330313031333333330D
:2030830031313131313133333232323275820002334D123FC575080275820002334D8F08BB
:2030A30090001E74FFF0120B5975820002334D8F0890001E74FFF0120B5975820002334D76
:2030C3008F0890001E74FFF0120B6012163C904F54E493602890029D124A00904F52E493FF
:2030E300FD740193FE7C007B009002A1EDF0EEA3F0ECA3F0EBA3F090029D124526758200A2
:2031030002334D90001E74FFF08F08120B601216A375820002334D8F087418B5080280055A
:20312300741AB50805904011E4F07419B508028005741BB508069040117404F0741AB508D0
:20314300028005741BB50808904200E0547FFEF0120B59904012E4F012176275090F90400A
:2031630003E0FE30E3F89040287403F090400FE0120A75900293124B1D900298E4F0900084
:2031830029E0FBA3E0FCA3E0FDA3E0FE900299EBF0ECA3F0EDA3F0EEA3F090029312450C9A
:2031A30075820002334D8F08120B607428B508028005742AB50805904011E4F07429B50830
:2031C300028005742BB508069040117404F0742AB508028005742BB50808904200E0547FEF
:2031E300FEF0904012E4F09042307408F0904117E4F0742DB5080D1206B59040237404F06B
:20320300904022F012163C0230D1750803120B599040107408F0904161E4F0904162F09067
:203223004163F0904165F0904166F090416704F09040237404F09040027407F075090E90CA
:203243004007E4F090400604F075820002334D8F089000137403F090029D124A009002A1AE
:203263007402F0E4A3F0A3F0A3F090029D1245269002A1E0FBA3E0FCA3E0FDA3E0FE90007E
:203283001FEBF0ECA3F0EDA3F0EEA3F0904F83E493FB740193FC740293FD7403938B828C30
:2032A300838DF012194875820002334D8F08120B6012163C9000137406F090029D124A000F
:2032C300904F8BE493FC740193FD740293FE740393FF9002A1ECF0EDA3F0EEA3F0EFA3F067
:2032E30090029D1245269002A1E0FCA3E0FDA3E0FEA3E0FF90001FECF0EDA3F0EEA3F0EF12
:20330300A3F0900244124B1D75410075422075430090024875F000124498900029E0FCA31D
:20332300E0FDA3E0FEA3E0FF90024AECF0EDA3F0EEA3F0EFA3F09002497409F0900244123F
:20334300450C75820080037582012285088222AF82904F1FE493FEC3EF9E4006758204021D
:20336300341F900018EFF0EF75F002A42401F582740035F0F583E0FDA3E0FEEDF54130E533
:203383000675820602341FEF75F004A42420F582744F35F0F583E493FBA3E493FCA3E49319
:2033A300FEA3E493FF900019E0F8A3E0F9A3E0FAA3E0FDE82BFBE93CFCEA3EFEED3FFF90E9
:2033C3004030E0FD30E726740F5541904033F08B05904037EDF08C05904036EDF08E059049
:2033E3004035EDF08F05904034EDF08024740F554190403BF08B0590403FEDF08C0590406E
:203403003EEDF08E0590403DEDF08F0390403CEBF0904030E06480FFF07582002290001824
:20342300E0F58222900018E075F002A42401F582740035F0F583E0FEA3E0740F5EF58275A2
:20344300830022904F4AE4936016900018E0240DF582E43400F583E0FF30E7048F82806003
:20346300900018E0FF904F4493FE30E74D904F38E493FCA3E493FDEC54F0703AEF75F002D9
:20348300A4FFADF02401F582ED3400F583E0FBA3E053030F7C00EF2438F582ED344FF583CB
:2034A300E493FDA3E49353050F7F00EBC39D2EFE53063F4306808E828006904180E0F5827F
:2034C30022AC82AD83AEF0FF900019ECF0EDA3F0EEA3F0EFA3F0904F4BE493C0E07401937B
:2034E300C0E0740293C0E0740393C0E08C828D838EF0EF1248EDAF82E58124FCF581EF6088
:2035030005758200805B900019E0FCA3E0FDA3E0FEA3E0FF30E727904F4BE493FC740193E6
:20352300FD740293FE740393FF900019C3E49CF0E49DA3F0E49EA3F0E49FA3F08020904FE1
:203543004BE493FC740193FD740293FE740393FF900019ECF0EDA3F0EEA3F0EFA3F0758296
:2035630004221234C4AF82900018E0F582C007123352AE82D007EF70028E078F82229000CA
:2035830019E0FCA3E0FDA3E0FEA3E08C828D838EF022AD82AE83AFF08D418E428F437544C9
:2035A3000A75450090002D75F0001244B71217E022AD82AE83AFF075412D75420075430099
:2035C30075440A7545008D828E838FF01244B722AD82AE83AFF08D418E428F4375440575FB
:2035E300450090003775F0001244B722AD82AE83AFF0754137754200754300754405754555
:20360300008D828E838FF01244B722AD82AE83AFF0AC08BC1003023719BC1103023719BC27
:203623001203023719BC1303023719BC1802802FBC1902802ABC1A028025BC1B028020BC44
:203643001C02801BBC20030236DEBC21030236DEBC3003023726BC310302372602398190DA
:20366300002C124719AB82AC8374032518F9E43519FAC3EB99EC9A5006758204023984E5B2
:203683001845196030AC1890402974E1F0EC04904029F09040297408F0A915AA16AB178918
:2036A300828A838BF0124EA2F8A3A982AA83904029E8F0DCEA748055A8FCC2AF90400FE054
:2036C30090400DE0904007E04408FBF09040287404F0EC42A8758200023984900013E0E0ED
:2036E3006006758202023984904006E4F0904007F09040027405F09040287403F0904003CB
:20370300E0FC20E3F8C007C006C005120B59D005D006D007800D900013E0E0600675820236
:20372300023984904F7AE49390001DF090001EE02401F0904F63E493FC7B002518FAEB3530
:2037430019FB900014EAF0EBA3F0C374049A74019B50067582040239848C42754300754125
:203763000090003C75F000C007C006C005124498904F63E493243CFCE43400FB7A00851599
:20378300418516428517438518448519458C828B838AF01244B7D005D006D007904F7BE402
:2037A30093FCBCFF028012EC243CFCE43400FB90001EE0FA8C828B83F0904F65E493FCBCC6
:2037C300FF028023EC243CFCE43400FB7A008D418E428F43904F64E493FF8F448A458C8294
:2037E3008B838AF01244B7904F66E493FFBFFF028025EF243CFFE43400FE7D0075412D75D8
:2038030042008D43904F64E493FC8C448D458F828E838DF01244B7904F69E493FF603090B1
:203823000014E0FDA3E0904F68E493FEEDC39E5FFE904F67E493243CFDE43400FC8D828CE1
:2038430083E0FBEFF4FF5B42068D828C83EEF0904F6AE4936020900014E0C0E0A3E0C0E0FF
:2038630090003C120A13AE82AF8315811581900014EEF0EFA3F0904F1EE493602F904011D4
:20388300E0FF530701C3E49FFFC00774FFC0E07401C0E0900014E0C0E0A3E0C0E090003CA4
:2038A30075F000124607E58124FBF5817430B5080280057431B508067582000239847411BB
:2038C300B5080280057413B50814904F57E493FE740193FF900016EEF0EFA3F08012904F20
:2038E3005BE493FE740193FF900016EEF0EFA3F0904F55E4936079AF08BF10028021BF116B
:2039030002801CBF12028017BF13028012BF2002800DBF21028008BF22028003BF235112B3
:203923001794120B60904F50E49390422CF09040027409F0904F55E49390001DF09000139E
:203943007401F090029D124A00904F52E493FE740193FF7D007C009002A1EEF0EFA3F0ED4E
:20396300A3F0ECA3F090029D12452675820080119000137402F012176275820080037582F9
:203983000122AF8274F85508FEBE280280057582018008904117EFF0758200227582FF1234
:2039A30039852275820012398522AF82C2AF904006E04404F07E0090400CE0FD30E2050E4F
:2039C300904311E0C3EF9E400512473C80E9904006E054FBF0D2AF22904316E4F09043174E
:2039E300F0904FB593FC740193FD740293FE740393FF754180754202E4F543F5448C828DBD
:203A0300838EF0EF12410CAC82AD838D03904314EBF0904315ECF09040027408F0904FB310
:203A2300E493FE740193FFC313FC904312ECF0EFC313CE13CE904313EEF01217AB90431085
:203A43007425F07582061239AD904FB3E493FE740193FF0303543FFC904312ECF0EFC313BC
:203A6300CE13CEC313CE13CE904313EEF07582051239AD904310E4F0904002F0904316E015
:203A8300FFBF7F028003BF8009904316E4F0904317F02212498422904010E0FF53070FBF78
:163AA3000905758201800375820022904164E0FF74035FF58222E8
:205851003FF03FF0666F756E64204158353034330A004E6F20526164696F0A636869702094
:06587100666F756E640015
:203AB900AF827DB97E4F8D828E83E493FCB50702800F74032DFDE43EFE8D828E83E4937011
:203AD900E522E5E220E40280137EB97F4F74032EFEE43FFF8E828F83E49370F1229002A747
:203AF900E4F0A3F022C01EE581F51E2404F581AE82AF839002A5C007C006124A00D006D007
:203B190007A81E08A60608A607087600087600EFC313CE13CEFF8E048F057E007F00900232
:203B3900A9ECF0EDA3F0EEA3F0EFA3F0A81E08080808E618C40354F8C6C403C666C654F8A2
:203B5900C66608F61818E6C40354070846F618E618C40354F8C6C403C666C654F8C666087E
:203B7900F6A81E08ECC396FCED0896FDEE0896FEEF0896FF9002A9ECF0EDA3F0EEA3F0EF82
:203B9900A3F0A81E08080808E618C40354F8C6C403C666C654F8C66608F61818E6C403545C
:203BB900070846F618E618C40354F8C6C403C666C654F8C66608F6A81E08E62CFC08E63D7C
:203BD900FD08E63EFE08E63FFF9002A9ECF0EDA3F0EEA3F0EFA3F0A81E08E625E0F608E642
:203BF90033F608E633F608E633F6181818E625E0F608E633F608E633F608E633F6A81E0819
:203C1900E62CFC08E63DFD08E63EFE08E63FFF9002A9ECF0EDA3F0EEA3F0EFA3F09002A72C
:203C390074F6F0743AA3F09002A512456D1244177582021243931244179002A7E0FEA3E080
:0A3C5900FF4E70EC851E81D01E2284
:204FB90001D14F02E24F03EA4F04F54F050050061150071C50000000453A206E6F7420734E
:204FD9007570706F7274656400453A206275737900453A2074696D656F757400453A206935
:204FF9006E76616C696400453A206E6F206368697020666F756E6400453A2072616E6769EE
:105019006E6700453A206C6F636B206C6F73740088
:0400000002031132B4
:03000B000200B13F
:0100130032BA
:01001B0032B2
:03002300021209BD
:01002B0032A2
:03003300023C6329
:01003B003292
:01004300328A
:01004B003282
:01005300327A
:03005B000202A3FB
:030063000202DABC
:01006B003262
:01007300325A
:01007B003252
:01008300324A
:01008B003242
:01009300323A
:01009B003232
:0100A300322A
:0300AB0002026CE2
:06038A007522010200AE25
:0300AE00023F6DA1
:203C6300C0E0C082C083C007C0D075D000E587FF20E702801090700CE4F0F5A0F598F5A8DD
:203C830043870180FBD0D0D007D083D082D0E03222AE82AF83C007C006123A9AAD82D006E1
:203CA300D00774062EFEE43FFF74182EF582E43FF583E0FBA3E08B00E4F9FAFCE528C39872
:203CC300F528E52999F529E52A9AF52AE52B9CF52BA828A929AA2AE52BFC33E433F5346016
:203CE3000EE528FC2BFBE4F528F529F52AF52BEB7003023D9F74162EF582E43FF583E0FE42
:203D0300A3E0FFED60638E378F388B36853782853883E0F535A385823785833874876535E3
:203D2300F582124171A882E4F9FAFDE82530F530E93531F531EA3532F532ED3533F5337407
:203D4300E16535F582124171AD828D01E4FAFCFDE9252CF52CEA352DF52DEC352EF52EEDEE
:203D6300352FF52FD536A580338B058E828F83E0FCA3AE82AF8374556CF582124171AC8224
:203D83008C01E4FAFBFCE9252CF52CEA352DF52DEB352EF52EEC352FF52FDDCFE534602BC0
:203DA300C37488952C7413952DE4952EE4952F50177410C3952CF52C7427952DF52DE49560
:203DC3002EF52EE4952FF52F123C932222AE82AF8374062EFEE43FFF8E828F83A3A3E0FC30
:203DE300A3E0FDA3E0FEA3E08C828D838EF012078822AE82AF83C007C006123A9AD006D062
:203E0300078E828F83E0FD6036BD0302800DBD0402800DBD0502800D023E9DD289023E9DFE
:203E2300C289023E9D75153175165075178075181075190090000075F00012360E805B74F0
:203E430001B5340AC28975340212399F804C7402B534057534008042D2898E828F83C007AC
:203E6300C006123C94D006D007E534602DC007C0061239A6D006D0078E828F83123DD07563
:203E830028E2752904E4F52AF52BF52CF52DF52EF52FF530F531F532F53322758203122ED0
:203EA300E3E5826005124BF580FB123AAEAF82BF01028003123AAE22758218122EE3E5825E
:203EC3006005124BF580FB7524FF7525FF123AAEAF82BF01028003123AAE22758228122E91
:203EE300E3E5826005124BF580FB7528E2752904E4F52AF52BF52CF52DF52EF52FF530F55B
:203F030031F532F53375340122D2AC22C2AC227582091241967582381241B0E587A2E6B360
:203F23009201E433F5229070077418F07580E7740255E844FDF5887590FF758C0B758900DF
:203F4300758A0E758B00758E151206CB75860075A84075980075A00090700C7401F0E52264
:203F6300B401009201E433F58222D2AF12479175C60012425FE522600BC289122ADFE582AE
:203F830060078024123A96D2AC1206D1123E9E1244177F02C007122ED1E582D00760027FF7
:203FA300038F8212439380E71244177F02C007122ED1E582D00760027F038F82124393803A
:023FC300E722F3
:205029005555555555555555FFFFFFFFFFFFFFFFFFFFFFFFFFFFFFFF1E1E1E1E1E1E1E1EDF
:085049005555555555555555B7
:203FC500438C0B9040217401F0904002E4F004F0907044E0FF74BF5FF074F7458D528C2230
:203FE500758E15758CEB9070447407F075B10C9070407429F0E4A3F09070427428F0E4A33E
:20400500F090700C04F0124E04E582FFFE60048E82800F1240A7E582600575820380037529
:03402500820022F4
:20402800758E15758CEB9070447407F075B10C90700C7401F09070407429F0E4A3F09070DE
:20404800427428F0E4A3F0124E049040027480F0E4F090000A124B09904000E0904000E0C5
:20406800FFBF5102800575820180339040017455F0E0FFBF55028005758202802190400188
:2040880074AAF0E0FFBFAA028005758202800F1240A7E582600575820380037582002274E4
:2040A8008055A8FFC2AF8F06538CEB438C2B9040247401F07460558DFD904024E4F0E58D6C
:2040C800F4FC52059040247403F0BD20028005BD4018800B907044E0FC74F75CF080199032
:2040E8007044E0FC74084CF0800E9040247402F0EF42A8758201800BEDF4FD528CEE42A898
:04410800758200229A
:20410C00FB7A20E4FCFDFEFFE5822582F582E58333F583E5F033F5F0EB33FB4017DAE980EC
:20412C0042E5822582F582E58333F583E5F033F5F0EB33FBEC33FCED33FDEE33FEEF33FF1B
:20414C00EC9541ED9542EE9543EF95444013EC9541FCED9542FDEE9543FEEF9544FF43821D
:05416C0001DABEEB22A8
:20417100E5825455C5820354552582F5825433C582030354332582F582540FC582C4540FC3
:054191002582F58222E9
:06035A00E478FFF6D8FD77
:1A419600E582FF65F1543F601053073F43F10475F10F74FC4F52F18FF12266
:1A41B000E582FF65F9543F601053073F43F90475F90F74FC4F52F98FF92224
:2000B100C021C0E0C0F0C082C083C007C006C005C004C003C002C001C000C0D075D000AFD9
:2000D10086AEEA758600EE30E012C007C00612019812011CD006D007E5EA4206EE30E50CAC
:2000F100C0071202401201C4D007E5EA8F86D0D0D000D001D002D003D004D005D006D00706
:0B011100D083D082D0F0D0E0D02132AB
:2041CA00AF82C2A99002C574FFF0A3F075E921EF6019907F00E0FFBF8E0CE5E220E407905C
:2041EA0002B9E4F0A3F01201988031AEF27F009002B9EEF0EFA3F0ACEB8C05E4FC4206ED30
:20420A0042079002B9EEF0EFA3F09002B5E4F0A3F0A3F0A3F09002BB14F0A3F0AEFA7F00C1
:20422A009002C1EEF0EFA3F0ACEB8C05E44206ED42079002C1EEF0EFA3F09002BDE4F0A3BE
:20424A00F0A3F0A3F09002C314F0A3F012011C1201C4D2A92274405587F5821241CA2275F4
:20426A0082001241CA22AE82AF837CC57D028C828D83E0FAA3E0FBBAFF05BBFF0280068A51
:18428A00048B0580E98C828D83EEF0EFA3F08E828F8374FFF0A3F02267
:20011C009002BBE0FEA3E0FFBEFF12BFFF0F9002B9E02400F5F4A3E034F0F5F5228E828FF0
:20013C0083A3A3A3A3E0FAA3E0FBA3E0FCA3E0FD9002B5E0C39AFAA3E09BFBA3E09CFCA3E8
:20015C00E09DFD20E71A8E828F83E0FAA3E0FB9002BBEAF0A3EBF08E828F8312427080A0C3
:20017C00EA2400EB34F0E43CE43D20E7A19002B9E0A3C39AF5F4E09BF5F52222AAF2ABEB6E
:20019C009002B9E0CAF0A3C39AFAE0CBF09BFB450260149002B5E02AF0A3E03BF0A3E034D2
:0801BC0000F0A3E03400F02282
:2042A2007CBB7D02AA82AB838C828D83E0FEA3E0FFBEFF16BFFF138A828B83EEF0A3EFF050
:2042C2008C828D83EAF0A3EBF022C006C0078E828F83A3A3A3A3E0F8A3E0F9A3E0FEA3E0B1
:2042E200FF8A828B83A3A3A3A3C3E098A3E099A3E09EA3E09F20E706D005D00480AAD007C6
:04430200D00680B3AE
:2001C4009002C3E0FEA3E0FFBEFF12BFFF0F9002C1E02400F5F6A3E034F0F5F7228E828F34
:2001E40083A3A3A3A3E0FAA3E0FBA3E0FCA3E0FD9002BDE0C39AFAA3E09BFBA3E09CFCA338
:20020400E09DFD20E71A8E828F83E0FAA3E0FB9002C3EAF0A3EBF08E828F8312427080A012
:20022400EA2400EB34F0E43CE43D20E7A19002C1E0A3C39AF5F6E09BF5F72222AAFAABEBB1
:200244009002C1E0CAF0A3C39AFAE0CBF09BFB450260149002BDE02AF0A3E03BF0A3E03419
:0802640000F0A3E03400F022D9
:204306007CC37D020242A675F90F75E901907F00E0B48E4B9002B9AAF4E0CAF0C39AFAA31A
:20432600ABF5E0CBF09BFB7C00E5E25410701DE5F15407B40316E5F1C423540704FC7420C8
:20434600C313DCFC2AFAE43BFBE43CFC9002B5E02AF0A3E03BF0A3E03CF0A3E03400F022E8
:20436600D3E5F495F2FAE5F595EBFB74102B4019D3E5F695FAFAE5F795EBFB74102B400927
:0D438600E5EA54217003F5822275820122C0
:10587700758200229002C3E0F470F5A3E0F470F0A3
:2058A70075820122C000C001C002C003C004C005C006C007124417758202124393D007D0B6
:0E58C70006D005D004D003D002D001D00022BC
:20439300AF82748055A8FEC2AF9002C5E0FCA3E0FDBCFF0ABDFF07124366E5826008EE4284
:2043B300A8758201805DEF5405604BC007C00612587BE582D006D007603C12430D74F0246E
:2043D300024008740C55874404F587C374B594F87402940F4008740C55874408F587EF3044
:2043F300E20FC006124EF3D006EE42A87582028012124BF58007EF30E10312473CEE42A81E
:20441300758200227F00748055A8FEC2AF120198C007C00612011C1202401201C4D006D059
:20443300078F059002C5E0FBA3E0FCBBFF05BCFF0280428B828C83E0F9A3E0FA9002C5E92D
:20445300F0EAA3F0EE42A80D8B828C83A3A3E0F9A3E0FAC006C005C002C0011244738009DF
:20447300C001C0028B828C8322D001D002D005D006C2AF80AE8D07124366AC82EE42A8EC3A
:0544930070848D8222FF
:1F449800AC82AD83AE42AF43BE0004EF600C1F0FE54112474BA3DEFADFF88C828D83221E
:2044B700AD82AE83AFF08D468E478F4885414985424A85434BA844A9458803890418B8FF73
:2044D7000119EB4C6025854982854A83854BF0124EA2FCA385824985834A8D828E838FF0AB
:1544F700EC12474BA3AD82AE8380CE8546828547838548F02254
:1A450C00AE82AF83748055A8FDC2AF8E828F83C005124270D005ED42A8225B
:20452600E5A85480C0E0C2AFC082C0831201989002B5E0FAA3E0FBA3E0FCA3E0FDD083D012
:2045460082AE82AF83A3A3A3A3E02AF0A3E03BF0A3E03CF0A3E03DF08E828F831242A212B4
:07456600011CD0E042A82275
:200338007926E94400601B7A01905851784775D904E493F2A308B8000205D9D9F4DAF275DF
:02035800D9FFCB
:20456D00E5A85480C0E0C2AFC082C0831202409002BDE0FAA3E0FBA3E0FCA3E0FDD083D01A
:20458D0082AE82AF83A3A3A3A3E02AF0A3E03BF0A3E03CF0A3E03DF08E828F831243061208
:0745AD0001C4D0E042A82286
:2045B400AE82AF83748055A8FDC2AFC007C006C005120198D005D006D0078E828F83C005C0
:0C45D4001242A212011CD005ED42A822E8
:2045E000E583540F4440F583E5A833C2AFE5B1F5F054FC4402F5B1E085F0B1F5F085B58364
:0746000085B68292AFE422AF
:20460700E58124FAF8E6FF08E6FC08E6FD08E6FA08E6FB4A6047EA60010B20F74530F6457E
:20462700A88220F543E66C6FF608ED13EC1330E401B31330E401B31330E401B31330E4018D
:20464700B31330E401B31330E401B31330E401B31330E401B3FCE433FDDACADBC88C828D42
:2046670083220246E30246A9E26C6FF208ED13EC1330E401B31330E401B31330E401B3132B
:2046870030E401B31330E401B31330E401B31330E401B31330E401B3FCE433FDDACADBC888
:2046A70080BBE06C6FF0A3ED13EC1330E401B31330E401B31330E401B31330E401B31330CF
:2046C700E401B31330E401B31330E401B31330E401B3FCE433FDDACADBC88081ED13EC1353
:2046E70030E401B31330E401B31330E401B31330E401B31330E401B31330E401B31330E47D
:1247070001B31330E401B3FCE433FDDACFDBCD02466404
:20471900E583540F4440F583E5A833C2AFE5B1F5F054FC4401F5B1E085F0B1F58385B58298
:0347390092AF221A
:0F473C00E587540C4401F58700220000000000BF
:1B474B0020F71130F6138883A88220F509F6A8837583002280FEF280F5F0226D
:20476600AE82AF8353077F8F04E4FDCE25E0CE33FFEE2451F582EF3450F583E493FEA3E4F0
:0B47860093FFEE6CF582EF6DF58322CF
:20479100907F167404F09070297406F090FC00E06480703FA3E064FE7039A3E0644370338E
:2047B100A3E06441702DA3E0644C7027A3E0FA24E65020A37BFFACA8C2AFADD98583D9A871
:2047D10082905251E2086B93FBDAF98DD98CA864F36056907030745DF0A37438F0A374016E
:2047F100F0A3743EF0A374DBF0A37440F090703874A7F0A37428F0A37427F0A37416F090FD
:2048110070767442F0A37408F0907060E090706630E60B742BF0A374CEF09000002274C3D8
:20483100F0A374D0F09000002290FC1CE0F8A3E0F9A3E0FA907F10E8F0A3E9F0907F16EAF3
:20485100F090FC0CE0F8A3E0F9A3E0FAA3E0FBA3E0FCA3E0FD907030E8F0A3E9F0A3EAF070
:20487100A3EBF0A3ECF0A3EDF090FC12E0F8A3E0F9A3E0FAA3E0FBE924EC4024E9232354DD
:20489100FCF9E82323F8540349F9E854FCF8EB232354FCFBEA2323FA54034BFBEA54FCFAAC
:2048B100907038E8F0A3E9F0A3EAF0A3EBF090FC16E0F8A3E0F9907076E8F0A3E9F09070A0
:1C48D10060E090FC1830E60390FC1AE0F8A3E0F9907066E8F0A3E9F09000012267
:2048ED00C000C001F9E58124F9F8E930E712E5822608E5833608E5F03608E9366480800FC4
:19490D00D3E5829608E5839608E5F09608E99633E433F582D001D000223D
:20492600C000E58124FCF8E58330E70BE5822608E5833664808008D3E5829608E583963301
:07494600E433F582D00022EA
:200360007800E84400600A790175D900E4F309D8FC7846E84404600C7905900001E4F0A313
:04038000D8FCD9FAD2
:20494D00C000E58124FCF8E58330E715E5822608E5833630E71E18C3E49608F582E4968042
:17496D0011D3E5829608E5839620E70818E608F582E6F583D0002270
:20498400758E15758CEB907044E0FF74404FF075B10C9070407429F0E4A3F09070427428A5
:0849A400F0E4A3F01240A72289
:2049AC00E58124FEF8E66014FF20F73030F614A88290402920F506E0F608DFFB22E0F2089F
:2049CC00DFFB22748055A8FDC2AFAED975D9407829E2F0A3DFFB8ED9ED42A822748055A81A
:1449EC00FDC2AFAED975D9407829E2A3DFFC8ED9ED42A822D3
:205051000000817F017F8000017E80010001817E017C80030003817C0002817D017D80023F
:20507100017880070007817800068179017980060004817B017B8004017A80050005817A1F
:205091000170800F000F8170000E81710171800E000C81730173800C0172800D000D8172FF
:2050B100000881770177800801768009000981760174800B000B8174000A81750175800ADF
:2050D1000160801F001F8160001E81610161801E001C81630163801C0162801D001D8162BF
:2050F100001881670167801801668019001981660164801B001B8164001A81650165801A9F
:205111000010816F016F8010016E80110011816E016C80130013816C0012816D016D80127E
:20513100016880170017816800168169016980160014816B016B8014016A80150015816A5E
:205151000140803F003F8140003E81410141803E003C81430143803C0142803D003D81423E
:20517100003881470147803801468039003981460144803B003B8144003A81450145803A1E
:205191000030814F014F8030014E80310031814E014C80330033814C0032814D014D8032FE
:2051B100014880370037814800368149014980360034814B014B8034014A80350035814ADE
:2051D1000020815F015F8020015E80210021815E015C80230023815C0022815D015D8022BE
:2051F100015880270027815800268159015980260024815B015B8024015A80250025815A9E
:205211000150802F002F8150002E81510151802E002C81530153802C0152802D002D81527D
:20523100002881570157802801568029002981560154802B002B8154002A81550155802A5D
:204A0000AE82AF83748055A8FDC2AF8E828F83C007C006C005124B3BAC82D005D006D00719
:204A20008E828F83C007C006C005C004124B80AB82D004D005D006D007EB2CFC8E828F83A9
:164A4000C005C004124B86AF82D004D005EF2CFCED42A88C8222FC
:204A5600E582FFC4540FFE53060FEFC454F04EFF0303543FFE530633EF2F25E054CC4EFF56
:0E4A7600C313FE530655EF2F54AA4EF58222AD
:20026C00C0E0C0D0C086C082C083C0F075860075D0001258D5D0F0D083D082D086D0D0D01D
:17028C00E032748055A823F5F0C2AF1258D5E5F0C31392AFF582221B
:2058D500E5E230E02A9002C7E51A2582F582E43583F58374CA83251A4003E51A04B51B050D
:2058F50053E2BF800AF51AE5E3F043E240D2F1E5E230E22AE51DB51C0553E27F8020900364
:20591500072582F582E43583F583E0F5E3748E83251D4003E51D04F51D43E280D2F2227460
:205935007D83C5826015251B500425828008C58225824002E582F51B43E24022745E83C58B
:20595500826015251C500425828008C58225824002E582F51C43E28022744383C582251B47
:20597500500425828008C58225824002E5829002C72582F582E43583F58322741F83C582EE
:1D599500251C500425828008C58225824002E5829003072582F582E43583F58322AC
:2059B600E51DD3951C500AE51D24FFB3744583951CF58222E51DD3951CF582500774348314
:2059D6002582F58222E51AC3951B5006742683C3951BF58222E51AC3951BF58250077414B8
:1459F600832582F58222740B8314F5822274058314F5822282
:204A840012596EE0F58222C000E58124FDF8125990E6F0D00022C000E58124FDF8E6540F36
:204AA40024F650022407243AF6024A92E5E25484B404047582012275820022E5E25484B448
:0A4AC40004047582002275820322AB
:08588F00124AB0E5827001220B
:134ACE00751D00751C00751B00751A0075E24043A04022B7
:2052510000070E091C1B1215383F363124232A2D70777E796C6B6265484F464154535A5D4D
:20527100E0E7EEE9FCFBF2F5D8DFD6D1C4C3CACD90979E998C8B8285A8AFA6A1B4B3BABD2D
:20529100C7C0C9CEDBDCD5D2FFF8F1F6E3E4EDEAB7B0B9BEABACA5A28F88818693949D9A0D
:2052B1002720292E3B3C35321F18111603040D0A5750595E4B4C45426F68616673747D7AED
:2052D100898E878095929B9CB1B6BFB8ADAAA3A4F9FEF7F0E5E2EBECC1C6CFC8DDDAD3D4CD
:2052F100696E676075727B7C51565F584D4A4344191E171005020B0C21262F283D3A3334AD
:205311004E49404752555C5B7671787F6A6D64633E39303722252C2B0601080F1A1D14138C
:20533100AEA9A0A7B2B5BCBB9691989F8A8D8483DED9D0D7C2C5CCCBE6E1E8EFFAFDF4F36C
:204AE100AE82AF835307018F047D00EE2451F582EF3456F583E493FFE4CF25E0CF33FEEF00
:084B01006CF582EE6DF58322D4
:144B0900E5826002058300007403D5E0FDD582F6D583F52262
:1E4B1D00AE82AF83748055A8FDC2AF8E828F83C005124B3BAF82D005ED42A88F82222A
:204B3B007CC57D027800AA82AB838C828D83E0FEA3E0FFBEFF06BFFF03888222EAB5061FD6
:204B5B00EBB5071B8E828F83E0FEA3E0FF8C828D83EEF0A3EFF008BEFF05BFFF0280DAACE8
:114B7B0006AD0780C57CBB7D0280B97CC37D0280B34A
:204B8C00E58124FEF8E66014FF20F73030F614A88290402920F506E6F008DFFB22E2F008BD
:204BAC00DFFB22748055A8FDC2AFAED975D9407829E0F2A3DFFB8ED9ED42A822748055A838
:164BCC00FDC2AFAED975D9407829E493F2A3DFFA8ED9ED42A8226A
:134BE200AE827F00EE2451F582EF3455F583E493F5822237
:204BF500907044E054BFF0C2AFE4F598F5A090700CF078FFF618F6E587540C4402F5877588
:054C150097D302E04707
:2002A300C0E0C0D0C086C082C083C0F075860075D000125A0CD0F0D083D082D086D0D0D0AD
:1702C300E032748055A823F5F0C2AF125A0CE5F0C31392AFF58222AB
:205A0C00E5E530E02A900347E5392582F582E43583F58374CA8325394003E53904B53A05D4
:205A2C0053E4FB800AF539E5E6F043E404D2F1E5E530E22AE53CB53B0553E4F7802090034A
:205A4C00C72582F582E43583F583E0F5E6748E83253C4003E53C04F53C43E408D2F222747E
:205A6C007D83C5826015253A500425828008C58225824002E582F53A43E40422745E83C54F
:205A8C00826015253B500425828008C58225824002E582F53B43E40822744383C582253A28
:205AAC00500425828008C58225824002E5829003472582F582E43583F58322741F83C58235
:1D5ACC00253B500425828008C58225824002E5829003C72582F582E43583F5832295
:205AED00E53CD3953B500AE53C24FFB3744583953BF58222E53CD3953BF582500774348322
:205B0D002582F58222E539C3953A5006742683C3953AF58222E539C3953AF58250077414E4
:145B2D00832582F58222740B8314F5822274058314F5822249
:204C1A00125AA5E0F58222C000E58124FDF8125AC7E6F0D00022C000E58124FDF8E6540F2E
:204C3A0024F650022407243AF6024C28E5E430E10A5408700AE5E5544060047582012275EE
:1E4C5A00820022E5E430E10A5408700EE5E554406004758200227582012275820322C9
:08589700124C46E5827001226B
:204C7800C007C006AF82753C00E4F53BF53AF539EF045403FF7407554125E025E04207C3CC
:1C4C9800E5429402B39202E433C42354E04F4440F5E775E407D29CD006D007227E
:204CB400E58124FBF8E6FC08E6FD08E6FA08E6FB4A604DEA60010B20F77330F648A8822036
:204CD400F520E6086D23F58254FE2451C58254013453F5837401936CFDE493FCDAE4DBE2F5
:204CF400801EE2086D23F58254FE2451C58254013453F5837401936CFDE493FCDAE4DBE250
:204D14008C828D8322E0A3A882A9836D23F58254FE2451C58254013453F5837401936CFD8C
:204D3400E493FC89838882DADCDBDA80D3E493A3A882A9836D23F58254FE2451C58254013E
:164D54003453F5837401936CFDE493FC89838882DADBDBD980AABD
:2002DA00C0E0C0D0C086C082C083C0F075860075D000125B43D0F0D083D082D086D0D0D03E
:1702FA00E032748055A823F5F0C2AF125B43E5F0C31392AFF582223C
:205B4300E5ED30E02A900387E53D2582F582E43583F58374CA83253D4003E53D04B53E0544
:205B630053ECFB800AF53DE5EEF043EC04D2F1E5ED30E22AE540B53F0553ECF780209004DD
:205B8300072582F582E43583F583E0F5EE748E8325404003E54004F54043EC08D2F22274EA
:205BA3007D83C5826015253E500425828008C58225824002E582F53E43EC0422745E83C507
:205BC300826015253F500425828008C58225824002E582F53F43EC0822744383C582253EDC
:205BE300500425828008C58225824002E5829003872582F582E43583F58322741F83C582BD
:1D5C0300253F500425828008C58225824002E5829004072582F582E43583F5832217
:205C2400E540D3953F500AE54024FFB3744583953FF58222E540D3953FF5825007743483D1
:205C44002582F58222E53DC3953E5006742683C3953EF58222E53DC3953EF5825007741498
:145C6400832582F58222740B8314F5822274058314F5822211
:204D6A00125BDCE0F58222C000E58124FDF8125BFEE6F0D00022C000E58124FDF8E6540F6D
:204D8A0024F650022407243AF6024D78E5EC30E10A5408700AE5ED5440600475820122753C
:1E4DAA00820022E5EC30E10A5408700EE5ED5440600475820022758201227582032268
:08589F00124D96E58270012212
:204DC800C007C006AF82754000E4F53FF53EF53DEF045403FF7407554125E025E04207C36B
:1C4DE800E5429402B39203E433C42354E04F4440F5EF75EC07D29DD006D007221B
:204E04007F00538CF77E03438E08538EF7538CFEE58D30E3047D00800D438C01EF14FCFFC9
:124E240070E5DEE37D04438C099070447447F08D8222ED
:204E3600E58124FDF8E6FA08E6FB4A6018EA60010BE58313E5821330E401B3DAF9DBF7F5A5
:064E560082E433F5832223
:0303110075814BA8
:0A032E00123F12E58260030200AEE8
:204E5C00E58313E5821330E401B31330E401B31330E401B31330E401B31330E401B31330CA
:144E7C00E401B31330E401B31330E401B3F582E433F58322AC
:124E9000E5F0540FF5F05408F40445F0F5F03395E022BB
:1C4EA20020F71430F6148883A88220F507E6A88375830022E280F7E49322E0221F
:0259B400C0C170
:015A0B00405A
:20535100000005800F800A001B801E0014001180338036003C00398028002D802780220044
:20537100638066006C00698078007D8077807200500055805F805A004B804E004400418024
:20539100C380C600CC00C980D800DD80D780D200F000F580FF80FA00EB80EE00E400E18004
:2053B100A000A580AF80AA00BB80BE00B400B180938096009C00998088008D8087808200E4
:2053D100838186018C01898198019D8197819201B001B581BF81BA01AB81AE01A401A181B4
:2053F100E001E581EF81EA01FB81FE01F401F181D381D601DC01D981C801CD81C781C20194
:20541100400145814F814A015B815E0154015181738176017C01798168016D816781620173
:20543100238126012C01298138013D8137813201100115811F811A010B810E010401018153
:20545100038306030C03098318031D8317831203300335833F833A032B832E032403218313
:20547100600365836F836A037B837E0374037183538356035C03598348034D8347834203F3
:20549100C003C583CF83CA03DB83DE03D403D183F383F603FC03F983E803ED83E783E203D3
:2054B100A383A603AC03A983B803BD83B783B203900395839F839A038B838E0384038183B3
:2054D100800285828F828A029B829E0294029182B382B602BC02B982A802AD82A782A202A3
:2054F100E382E602EC02E982F802FD82F782F202D002D582DF82DA02CB82CE02C402C18283
:20551100438246024C02498258025D8257825202700275827F827A026B826E026402618262
:20553100200225822F822A023B823E0234023182138216021C02198208020D820782020242
:064EBE00E5F03395E0224F
:0259B200C0C172
:015A0A00405B
:204EC400748055A8FFC2AFC007120198D0079002B5E0FBA3E0FCA3E0FDA3E0FEEF42A88B1E
:074EE400828C838DF0EE22A9
:084EEB00E5833395E0F5F022A8
:2055510000FFFE01FC0302FDF80706F904FBFA05F00F0EF10CF3F20D08F7F609F40B0AF54A
:20557100E01F1EE11CE3E21D18E7E619E41B1AE510EFEE11EC1312EDE81716E914EBEA152A
:20559100C03F3EC13CC3C23D38C7C639C43B3AC530CFCE31CC3332CDC83736C934CBCA350A
:2055B10020DFDE21DC2322DDD82726D924DBDA25D02F2ED12CD3D22D28D7D629D42B2AD5EA
:2055D100807F7E817C83827D78878679847B7A85708F8E718C73728D88777689748B8A75CA
:2055F100609F9E619C63629D98676699649B9A65906F6E916C93926D68979669946B6A95AA
:2056110040BFBE41BC4342BDB84746B944BBBA45B04F4EB14CB3B24D48B7B649B44B4AB589
:20563100A05F5EA15CA3A25D58A7A659A45B5AA550AFAE51AC5352ADA85756A954ABAA5569
:204EF300907044E054BFF0C2AFE4F598F5A090700CF078FF76BE18763718A681E587540C8A
:0A4F13004402F5877597D302E047CA
:1A03140078FFE58720E606E4F618F6800DB6BE0A18B63706188681023F1270
:025AEB00C0C138
:015B42004022
:025C2200C0C1FF
:015C790040EA
:025AE900C0C13A
:015B41004023
:025C2000C0C101
:015C780040EB
:2056510000112233445566778899AABBCCDDEEFF10013223544576679889BAABDCCDFEEF49
:205671003120130275645746B9A89B8AFDECDFCE2130031265744756A9B88B9AEDFCCFDE29
:205691006273405126370415EAFBC8D9AEBF8C9D7263504136271405FAEBD8C9BEAF9C8D09
:2056B1005342716017063524DBCAF9E89F8EBDAC4352617007162534CBDAE9F88F9EADBCE9
:2056D100C4D5E6F78091A2B34C5D6E7F08192A3BD4C5F6E79081B2A35C4D7E6F18093A2BC9
:2056F100F5E4D7C6B1A093827D6C5F4E39281B0AE5F4C7D6A1B083926D7C4F5E29380B1AA9
:20571100A6B78495E2F3C0D12E3F0C1D6A7B4859B6A79485F2E3D0C13E2F1C0D7A6B584988
:205731009786B5A4D3C2F1E01F0E3D2C5B4A79688796A5B4C3D2E1F00F1E2D3C4B5A697868
:205751008899AABBCCDDEEFF00112233445566779889BAABDCCDFEEF100132235445766748
:20577100B9A89B8AFDECDFCE3120130275645746A9B88B9AEDFCCFDE213003126574475628
:20579100EAFBC8D9AEBF8C9D6273405126370415FAEBD8C9BEAF9C8D726350413627140508
:2057B100DBCAF9E89F8EBDAC5342716017063524CBDAE9F88F9EADBC4352617007162534E8
:2057D1004C5D6E7F08192A3BC4D5E6F78091A2B35C4D7E6F18093A2BD4C5F6E79081B2A3C8
:2057F1007D6C5F4E39281B0AF5E4D7C6B1A093826D7C4F5E29380B1AE5F4C7D6A1B08392A8
:205811002E3F0C1D6A7B4859A6B78495E2F3C0D13E2F1C0D7A6B5849B6A79485F2E3D0C187
:205831001F0E3D2C5B4A79689786B5A4D3C2F1E00F1E2D3C4B5A69788796A5B4C3D2E1F067
:00000001FF
